0107690110999991990010213004+40200-112933SAO  +1326DPG  V0203301N003610300019N0160001N1+00171-00271100751ADDAG10999GD12991+0180099GD24991+0300099GF108991999999999999999999MA1100711999999MW1001REMAWY01144726 FIRST
0100690110999991990010214004+40200-112933SAO  +1326DPG  V0203501N001510300019N0160001N1+00061-00271100851ADDAG10999GD12991+0180099GD24991+0300099GF108991999999999999999999MA1100811999999MW1851REMAWY004SB27
0072690110999991990010214364+40200-112933SAOSP+1326DPG  V0203301N00211003001WN0032001N1+99999+99999999999ADDAG10999GD15991+0030099GF109991999999999999999999MA1100881999999MW1851
0111690110999991990010215004+40200-112933SAO  +1326DPG  V0203101N00211003001WN0024001N1+00001-00161101061ADDAA124999999AG10000GD15991+0030099GF109991999999999999999999MA1100911999999MD1310191+9999MW1851REMAWY00531901
0072690110999991990010215174+40200-112933SAOSP+1326DPG  V0203001N00361001801WN0004001N1+99999+99999999999ADDAG10006GD15991+0018099GF109991999999999999999999MA1100911999999MW1861
0094690110999991990010216004+40200-112933SAO  +1326DPG  V0202801N00151002401WN0016001N1+00001-00051101111ADDAG10999GD15991+0024099GF109991999999999999999999MA1100951999999MW1851REMAWY013SNOINCR 1/1/1
0066690110999991990010217004+40200-112933SAO  +1326DPG  V0203001N00151003001WN0016001N1+00061+00061101121ADDGA1091+003009999GF109991999999999999999999MA1100981999999MW1851
0143690110999991990010218004+40200-112933SAO  +1326DPG  V0203001N00261002101WN0016001N1+00111+00061101241ADDAA124999999AG10000AJ199999900005099GD15991+0021099GF109991999999999999999999MA1101081999999MD1310151+9999MW1851REMAWY02031509 90202 90402 26
0072690110999991990010219004+40200-112933SAO  +1326DPG  V0203601N00311004501EN0048001N1+00061+00001101281ADDAG10999GD14991+0045099GF108991999999999999999999MA1101121999999MW1851
0072690110999991990010220004+40200-112933SAO  +1326DPG  V0200101N00411004501EN0048001N1+00061-00211101311ADDAG10999GD14991+0045099GF108991999999999999999999MA1101151999999MW1851
0116690110999991990010221004+40200-112933SAO  +1326DPG  V0209999999999004501EN0112001N1+00111-00271101291ADDAA124999999AG10000GD14991+0045099GF108991999061999999999999MA1101151999999MD1110051+9999MW1001REMAWY01010500 16//
0090690110999991990010222004+40200-112933SAO  +1326DPG  V0200301N00311004501EN0160001N1+00111-00321101281ADDAG10999GD14991+0045099GF108991999999999999999999MA1101121999999MW1001REMAWY009BINOVC NW
0097690110999991990010223004+40200-112933SAO  +1326DPG  V0200101N00361007501EN0400001N1+00001-00491101381ADDAG10999GD14991+0075099GF108991999999999999999999MA1101221999999MW1001REMAWY016BINOVC SW AND NW
0160690110999991990010300004+40200-112933SAO  +1326DPG  V0200201N00151021001EN0800001N1-00101-00601101361ADDAA124999999AG10000GD13991+0210099GD23991+0750099GF107991999001999999071011MA1101221999999MD1110071+9999MW1001REMAWY039107 1071 90402         ?    MAX 35 LAST
0089690110999991990010313004+40200-112933SAO  +1326DPG  V0201201N002112200019N0800001N1-01821-02101102671ADDAG10999GF100991999999999999999999MA1102071999999MW1001REMAWY02343595 20009 90402 FIRST
0057690110999991990010314004+40200-112933SAO  +1326DPG  V0201101N001512200019N0800001N1-02101-02381102831ADDAG10999GF100991999999999999999999MA1102131999999MW1001
0094690110999991990010315004+40200-112933SAO  +1326DPG  V0200801N002112200019N0800001N1-01991-02211102901ADDAA124999999AG10000GF100991999999999999999999MA1102241999999MD1310171+9999MW1001REMAWY003317
0050690110999991990010316004+40200-112933SAO  +1326DPG  V0201101N002612200019N0800001N1-01501-01781102891ADDGF100991999999999999999999MA1102341999999MW1001
0096690110999991990010317004+40200-112933SAO  +1326DPG  V0201201N002612200019N0800001N1-01051-01381102961ADDAG10999GD12991+0750093GF102991999999999999999999MA1102441999999MW1001REMAWY015FEW AC E AND NW
0117690110999991990010318004+40200-112933SAO  +1326DPG  V0201201N001512200019N0800001N1-00661-01051102981ADDAA124999999AG10000GD12991+0750093GF102991999001999999001011MA1102541999999MD1210271+9999MW1001REMAWY011227 1001 94
0087690110999991990010319004+40200-112933SAO  +1326DPG  V0200801N000512200019N0800001N1-00161-00771102861ADDAG10999GD12991+0090099GD22991+0750093GF102991999999999999999999MA1102511999999MW1001
0100690110999991990010320004+40200-112933SAO  +1326DPG  V0200301N000512200019N0800001N1+00221-00661102781ADDAG10999GD12991+0090099GD22991+0750093GF102991999999999999999999MA1102471999999MW1001REMAWY004CS W
0114690110999991990010321004+40200-112933SAO  +1326DPG  V0201601N002612200019N0800001N1-00211-00991103021ADDAA124999999AG10000GD12991+0750093GF102991999001999999001051MA1102471999999MD1610051+9999MW1001REMAWY008605 1005
0072690110999991990010322004+40200-112933SAO  +1326DPG  V0201701N003112200019N0800001N1-00271-00931103061ADDAG10999GD13991+0750093GF107991999999999999999999MA1102511999999MW1001
0072690110999991990010323004+40200-112933SAO  +1326DPG  V0201401N001512200019N0800001N1-00271-00931103121ADDAG10999GD13991+0750093GF107991999999999999999999MA1102541999999MW1001
0122690110999991990010400004+40200-112933SAO  +1326DPG  V0201501N001512200019N0800001N1-00381-00991103211ADDAA124999999AG10000GD14991+0750093GF108991999001999999001071MA1102611999999MD1210101+9999MW1001REMAWY016210 1007 37 LAST
0077690110999991990010413004+40200-112933SAO  +1326DPG  V0201301N002612200019N0160001N1-01881-02101103671ADDAG10999GF100991999999999999999999MA1102881999999MW1001REMAWY01143797 FIRST
0057690110999991990010414004+40200-112933SAO  +1326DPG  V0201101N002112200019N0160001N1-01991-02211103831ADDAG10999GF100991999999999999999999MA1102951999999MW1001
0112690110999991990010415004+40200-112933SAO  +1326DPG  V0201501N00261018001EN0320001N1-01671-01891103801ADDGA1071+018009999GF107991999999999999999999MA1102981999999MD1110101+9999MW1001REMAWY023SWU NE VIRGA E/110 1050
0097690110999991990010416004+40200-112933SAO  +1326DPG  V0201101N001010360019N0800001N1-01441-01671103731ADDGA1021+021009999GA2081+036009999GF108991999999999999999999MA1102981999999MW1001REMAWY006SWU NE
0097690110999991990010417004+40200-112933SAO  +1326DPG  V0201301N00151021001EN0800001N1-01001-01281103741ADDGA1071+021009999GA2081+036009999GF108991999999999999999999MA1103011999999MW1001REMAWY006SWU NE
0147690110999991990010418004+40200-112933SAO  +1326DPG  V0201401N002612200019N0800001N1-00561-01001103541ADDGA1021+021009999GA2021+036009999GA3081+075009999GD19999+9999993GF108991999999999999999999MA1102951999999MD1710021+9999MW1001REMAWY011702 1578 96
0113690110999991990010419004+40200-112933SAO  +1326DPG  V0201301N002112200019N0800001N1-00221-00781103481ADDGA1021+021009999GA2021+036009999GA3081+075009999GD19999+9999993GF108991999999999999999999MA1102881999999MW1001
0117690110999991990010420004+40200-112933SAO  +1326DPG  V0201501N002112200019N0800001N1+00001-00661103271ADDAG10999GD12991+0210099GD22991+0360099GD34991+0750093GF108991999999999999999999MA1102781999999MW1001REMAWY006FEW CU
0187690110999991990010421004+40200-112933SAO  +1326DPG  V0201601N004112200019N0800001N1+00001-00711103191ADDAA124999999AG10000GD12991+0270099GD22991+0360099GD34991+0750093GF108991999999999999999999MA1102681999999MD1710221+9999MW1001REMAWY051FEW CU AND       ?    SC/ 722 18ARQ      ?    FT LT
0128690110999991990010422004+40200-112933SAO  +1326DPG  V0201601N004612200019N0800001N1-00111-00831103051ADDGA1021+036009999GA2071+048009999GA3081+075009999GD19999+9999993GD29999+9999993GF108991999999999999999999MA1102571999999MW1001
0114690110999991990010423004+40200-112933SAO  +1326DPG  V0201401N003610210019N0800001N1-00221-00891103131ADDGA1021+013509999GA2071+036009999GA3071+048009999GA4081+075009999GF108991999999999999999999MA1102611999999MW1001
0166690110999991990010500004+40200-112933SAO  +1326DPG  V0201401N003610360019N0800001N1-00331-00891103141ADDGA1021+013509999GA2071+036009999GA3071+048009999GA4081+075009999GF108991999999999999999999MA1102571999999MD1610081+9999MW1001REMAWY029MTN OBSCD NE/608 1878 33 LAST
0132690110999991990010813004+40200-112933SAO  +1326DPG  V0201701N00821021001EN0800001N1+00561-00281101541ADDAA124999999GA1081+021009999GF108991999999999999999999MA1101561999999MW1001REMAWY01144627 FIRSTEQDQ01+000042APCTENQ02+000462APC3  
0066690110999991990010814004+40200-112933SAO  +1326DPG  V0200801N00211021001EN0800001N1+00501-00281101741ADDGA1081+021009999GF108991999999999999999999MA1101691999999MW1001
0097690110999991990010815004+40200-112933SAO  +1326DPG  V0201501N00621021001EN0800001N1+00561-00221101821ADDGA1081+021009999GF108991999999999999999999MA1101761999999MD1310021+9999MW1001REMAWY008302 15//
0072690110999991990010816004+40200-112933SAO  +1326DPG  V0201501N00461021001EN0800001N1+00561-00211101841ADDAG10999GD14991+0210099GF108991999999999999999999MA1101761999999MW1001
0087690110999991990010817004+40200-112933SAO  +1326DPG  V0201901N00411015001EN0800001N1+00891-00051101831ADDAG10999GD13991+0150099GD24991+0210099GF108991999999999999999999MA1101831999999MW1001
0132690110999991990010818004+40200-112933SAO  +1326DPG  V0201501N00311015001EN0800001N1+01001+00001101871ADDAA124999999AG10000GD13991+0150099GD24991+0210099GF108991999051999999999999MA1101931999999MD1310151+9999MW1001REMAWY011315 15// 27
0098690110999991990010819004+40200-112933SAO  +1326DPG  V0201601N003610210019N0800001N1+01061+00061101781ADDGA1021+015009999GA2071+021009999GA3081+036009999GF108991999999999999999999MA1101901999999MW1001
0098690110999991990010820004+40200-112933SAO  +1326DPG  V0201301N003610210019N0800001N1+01331+00171101661ADDGA1021+015009999GA2071+021009999GA3071+036009999GF107991999999999999999999MA1101801999999MW1001
0176690110999991990010821004+40200-112933SAO  +1326DPG  V0202001N002110210019N9999999N9+01331+00171101681ADDAA124999999AG10000GD12991+0150099GD24991+0210099GF108991999051999999999999MA1101831999999MD1610101+9999MW1001REMAWY036RWU W SWU OMTNS E      ?    610 15//EQDQ01+000002VOVAR 
0143690110999991990010822004+40200-112933SAO  +1326DPG  V0200301N008210210019N0480001N1+00891+00331101811ADDAG10999GD12991+0150099GD24991+0210099GF108991999999999999999999MA1101901999999MW1001OC101241REMAWY039RB30E38 RWU W          ?    MTNS OBSC N
0116690110999991990010823004+40200-112933SAO  +1326DPG  V0200201N007210210019N0480001N1+00831+00221101931ADDAG10999GD12991+0150099GD24991+0210099GF108991999999999999999999MA1102001999999MW1001OC101081REMAWY012RWU SW SWU E
0175690110999991990010900004+40200-112933SAO  +1326DPG  V0200201N006710210019N0480001N1+00891+00221101961ADDAA124999999AG10000GD12991+0150099GD23991+0210099GF107991999051999999999001MA1102031999999MD1110191+9999MW1001REMAWY035SWU E/11900 1500       ?    59 LASTEQDQ01+000002SCOMCG
0107690110999991990010913004+40200-112933SAO  +1326DPG  V0200901N001010150019N0160001N1-00271-00321102501ADDAG10999GD12991+0090099GD23991+0150099GF107991999999999999999999MA1102401999999MW1001REMAWY01145927 FIRST
0087690110999991990010914004+40200-112933SAO  +1326DPG  V0201001N003110300019N0240001N1-00271-00271102541ADDAG10999GD12991+0150099GD23991+0300099GF107991999999999999999999MA1102401999999MW1001
0129690110999991990010915004+40200-112933SAO  +1326DPG  V0201001N002112200019N0800001N1-00161-00211102601ADDAA124999999AG10000GD12991+0300099GD24991+0600093GF108991999001999999071081MA1102471999999MD1310071+9999MW1001REMAWY008307 1078
0102690110999991990010916004+40200-112933SAO  +1326DPG  V0200701N00361030001EN0800001N1-00051-00101102651ADDAG10999GD13991+0300099GD23991+0420099GD34991+0600099GF108991999999999999999999MA1102511999999MW1001
0102690110999991990010917004+40200-112933SAO  +1326DPG  V0201001N001510420019N0800001N1+00441+00221102651ADDAG10999GD12991+0300099GD23991+0420099GD34991+0600099GF108991999999999999999999MA1102571999999MW1001
0132690110999991990010918004+40200-112933SAO  +1326DPG  V0200701N00211042001EN0800001N1+00831+00221102641ADDAA124999999AG10000GD13991+0420099GD24991+0600099GF108991999001999999071081MA1102611999999MD1110121+9999MW1001REMAWY011112 1078 25
0087690110999991990010919004+40200-112933SAO  +1326DPG  V0201301N001510600019N0800001N1+01111+00331102561ADDAG10999GD12991+0420099GD24991+0600099GF108991999999999999999999MA1102571999999MW1001
0072690110999991990010920004+40200-112933SAO  +1326DPG  V0201701N00511060001EN0800001N1+01561+00281102391ADDAG10999GD14991+0600099GF108991999999999999999999MA1102471999999MW1001
0114690110999991990010921004+40200-112933SAO  +1326DPG  V0201501N00461060001EN0800001N1+01611+00221102351ADDAA124999999AG10000GD13991+0600099GF107991999001999999001081MA1102441999999MD1610141+9999MW1001REMAWY008614 1008
0072690110999991990010922004+40200-112933SAO  +1326DPG  V0201801N005112200019N0800001N1+01721+00221102321ADDAG10999GD12991+0600093GF102991999999999999999999MA1102401999999MW1001
0072690110999991990010923004+40200-112933SAO  +1326DPG  V0201701N005112200019N0800001N1+01611+00171102331ADDAG10999GD12991+0600099GF102991999999999999999999MA1102401999999MW1001
0122690110999991990011000004+40200-112933SAO  +1326DPG  V0201601N003112200019N0800001N1+01331+00001102371ADDAA124999999AG10000GD13991+0600093GF107991999001999999001011MA1102371999999MD1710051+9999MW1001REMAWY016705 1001 63 LAST
0107690110999991990011013004+40200-112933SAO  +1326DPG  V0201001N00211030001EN0160001N1+00001-00321102421ADDAG10999GD13991+0300099GD24991+0600099GF108991999999999999999999MA1102371999999MW1001REMAWY01146326 FIRST
0087690110999991990011014004+40200-112933SAO  +1326DPG  V0200901N00261030001EN0160001N1+00111-00211102471ADDAG10999GD13991+0300099GD24991+0600099GF108991999999999999999999MA1102371999999MW1001
0129690110999991990011015004+40200-112933SAO  +1326DPG  V0201001N00211030001EN0800001N1+00111-00271102601ADDAA124999999AG10000GD13991+0300099GD24991+0600099GF108991999001999999071081MA1102441999999MD1310051+9999MW1001REMAWY008305 1078
0087690110999991990011016004+40200-112933SAO  +1326DPG  V0200101N00151030001EN0800001N1+00111-00211102631ADDAG10999GD13991+0300099GD23991+0600099GF107991999999999999999999MA1102511999999MW1001
0072690110999991990011017004+40200-112933SAO  +1326DPG  V0200501N00101030001EN0800001N1+00331-00051102621ADDAG10999GD13991+0300099GF107991999999999999999999MA1102511999999MW1001
0169690110999991990011018004+40200-112933SAO  +1326DPG  V0200701N00151030001EN0800001N1+00611+00061102651ADDAA124999999AG10000GD14991+0300099GF108991999051999999071001MA1102541999999MD1210071+9999MW1001REMAWY063CIG LWR DSNT N VIRGA S       ?    BINOVC SW, W, NW/ 207 1570 26
0089690110999991990011019004+40200-112933SAO  +1326DPG  V0201201N00311030001EN0800001N1+00941-00051102571ADDAG10999GD14991+0300099GF108991999999999999999999MA1102511999999MW1001REMAWY008BINOVC W
0091690110999991990011020004+40200-112933SAO  +1326DPG  V0200701N00261030001EN0800001N1+01111-00051102461ADDAG10999GD14991+0300099GF108991999999999999999999MA1102441999999MW1001REMAWY010BINOVC W,N
0166690110999991990011021004+40200-112933SAO  +1326DPG  V0203101N001010300019N0800001N1+01171+00001102411ADDAA124999999AG10000GD12991+0210099GD23991+0300099GD34991+0360099GF108991999051999999071001MA1102401999999MD1710121+9999MW1001REMAWY030BINOVC W,N/      ?    712 1570
0120690110999991990011022004+40200-112933SAO  +1326DPG  V0203201N000510300019N0800001N1+01281+00001102351ADDAG10999GD12991+0210099GD23991+0300099GD34991+0360099GF108991999999999999999999MA1102371999999MW1001REMAWY009BINOVC NW
0158690110999991990011023004+40200-112933SAO  +1326DPG  V0201901N001010300019N0800001N1+01221+00001102351ADDAG10999GD12991+0210099GD23991+0300099GD33991+0360099GD44991+0600099GF108991999999999999999999MA1102401999999MW1001REMAWY032BINOVC NW FEW CU LWR NE OVR MTNS
0208690110999991990011100004+40200-112933SAO  +1326DPG  V0203301N00101030001EN0800001N1+00891-00161102431ADDAA124999999AG10000GD13991+0300099GD23991+0360099GD34991+0600099GF108991999051999999071081MA1102441999999MD1310031+9999MW1001REMAWY072BINOVC N         ?    SC LWR OVR MTNS CU OVR MTNS DSPTD/303 1578 56 LAST
0092690110999991990011113004+40200-112933SAO  +1326DPG  V0201001N002612200019N0800001N1-00491-00601102631ADDAG10999GD13991+0750093GF107991999999999999999999MA1102441999999MW1001REMAWY01145622 FIRST
0072690110999991990011114004+40200-112933SAO  +1326DPG  V0200901N001512200019N0800001N1-00491-00601102671ADDAG10999GD13991+0750093GF107991999999999999999999MA1102471999999MW1001
0114690110999991990011115004+40200-112933SAO  +1326DPG  V0201601N00211075001EN0800001N1-00491-00601102771ADDAA124999999AG10000GD13991+0750099GF107991999001999999001071MA1102541999999MD1310071+9999MW1001REMAWY008307 1007
0072690110999991990011116004+40200-112933SAO  +1326DPG  V0200801N00101075001EN0800001N1-00271-00321102801ADDAG10999GD13991+0750099GF107991999999999999999999MA1102571999999MW1001
0072690110999991990011117004+40200-112933SAO  +1326DPG  V0201701N00051075001EN0800001N1+00331+00111102691ADDAG10999GD13991+0750099GF107991999999999999999999MA1102611999999MW1001
0117690110999991990011118004+40200-112933SAO  +1326DPG  V0201401N00051075001EN0800001N1+00721+00111102661ADDAA124999999AG10000GD14991+0750099GF108991999001999999001071MA1102611999999MD1010071+9999MW1001REMAWY011007 1007 22
0072690110999991990011119004+40200-112933SAO  +1326DPG  V0202501N001012200019N0800001N1+01061+00111102571ADDAG10999GD14991+0750093GF108991999999999999999999MA1102571999999MW1001
0081690110999991990011120004+40200-112933SAO  +1326DPG  V0203001N000512200019N0800001N1+01171+00111102431ADDGA1081+075009999GD19999+9999993GF108991999999999999999999MA1102471999999MW1001
0114690110999991990011121004+40200-112933SAO  +1326DPG  V0203301N000512200019N0800001N1+01331+00171102391ADDAA124999999AG10000GD14991+0750093GF108991999001999999001071MA1102401999999MD1710191+9999MW1001REMAWY008719 1007
0081690110999991990011122004+40200-112933SAO  +1326DPG  V0202901N001512200019N0800001N1+01111+00001102371ADDGA1081+075009999GD19999+9999993GF108991999999999999999999MA1102371999999MW1001
0081690110999991990011123004+40200-112933SAO  +1326DPG  V0203201N002612200019N0800001N1+01061+00061102401ADDGA1081+075009999GD19999+9999993GF108991999999999999999999MA1102371999999MW1001
0122690110999991990011200004+40200-112933SAO  +1326DPG  V0202801N002612200019N0800001N1+00721-00101102471ADDAA124999999AG10000GD14991+0750093GF108991999001999999001071MA1102341999999MD1710051+9999MW1001REMAWY016705 1007 57 LAST
0098690110999991990011613004+40200-112933SAO  +1326DPG  V0200501N00211024001EN0160001N1-00271-00271101341ADDAG10999GD13991+0240099GF107991999999999999999999MA1101191999999MW1001REMAWY01720008 43827 FIRST
0089690110999991990011614004+40200-112933SAO  +1326DPG  V0200601N00051024001EN0160001N1-00321-00321101381ADDAG10999GD14991+0240099GF108991999999999999999999MA1101221999999MW1001REMAWY008BINOVC E
0129690110999991990011615004+40200-112933SAO  +1326DPG  V0200501N000510240019N0800001N1-00321-00321101401ADDAA124999999AG10000GD12991+0090099GD24991+0240099GF108991999051999999071999MA1101221999999MD1310021+9999MW1001REMAWY008302 157/
0099690110999991990011616004+40200-112933SAO  +1326DPG  V0200901N001010240019N0800001N1-00171-00171101431ADDGA1021+009009999GA2081+024009999GF108991999999999999999999MA1101291999999MW1001REMAWY008SWU N-NE
0089690110999991990011617004+40200-112933SAO  +1326DPG  V0200601N00211024001EN0800001N1+00111+00111101411ADDAG10999GD14991+0240099GF108991999999999999999999MA1101321999999MW1001REMAWY008SWU N-NE
0166690110999991990011618004+40200-112933SAO  +1326DPG  V0209991C00001024001EN0800001N1+00221+00171101421ADDAA124999999AG10000GD13991+0240099GD24991+0750099GF108991999011999999071011MA1101321999999MD1110081+9999MW1001REMAWY045FEW CU OVR MTNS        ?    E-SE/ 108 1171 26
0101690110999991990011619004+40200-112933SAO  +1326DPG  V0201401N00211024001EN0800001N1+00331+00061101331ADDAG10999GD13991+0240099GF107991999999999999999999MA1101251999999MW1001REMAWY020FEW CU OVR MTNS E-SE
0122690110999991990011620004+40200-112933SAO  +1326DPG  V0201401N002612200019N9999999N9+00441+00111101241ADDAG10999GD12991+0150099GD22991+0240099GF102991999999999999999999MA1101151999999MW1001REMAWY007VIRGA SEQDQ01+000002VOVAR 
0178690110999991990011621004+40200-112933SAO  +1326DPG  V0201701N00461012001EN0800001N1+00671+00061101151ADDAA124999999AG10000GD13991+0120099GD23991+0240099GF107991999021999999071001MA1101121999999MD1610191+9999MW1001REMAWY057SWU OVR MTNS NE        ?    RWU SW MDT CU ALQDS/ 619 1270
0158690110999991990011622004+40200-112933SAO  +1326DPG  V0201601N00211012001EN0800001N1+00781-00211101101ADDAG10999GD13991+0120099GD23991+0240099GF107991999999999999999999MA1101081999999MW1001REMAWY062SWU OVR MTNS NE        ?    AND SE RW U SW AND NW MDT CU ALQDS
0186690110999991990011623004+40200-112933SAO  +1326DPG  V0200601N00311012001EN0800001N1+00501+00061101191ADDAG10999GD13991+0120099GD23991+0240099GD33991+0600099GF107991999999999999999999MA1101121999999MW1001REMAWY075SWB25E40         ?    SWU N-E AND SW AND NW CB N AND NE MOVG NE VIRGA ALQDS
0230690110999991990011700004+40200-112933SAO  +1326DPG  V0200801N00261012001EN0800001N1+00441+00061101161ADDAA124999999AG10000GD13991+0120099GD23991+0240099GD33991+0600099GF107991999091999999061031MA1101081999999MD1710021+9999MW1001REMAWY094CB SW AND NW MOVG NE CB N AND NE MOVD NE VIRGA ALQDS       ?    SW U SW-NW/ 70200 1963 48 LAST
0092690110999991990011713004+40200-112933SAO  +1326DPG  V0200801N002610270019N0160001N1-00211-00271101331ADDAG10999GD12991+0135099GD23991+0270099GF107991999999999999999999MW1001REMAWY0114//// FIRST
0087690110999991990011714004+40200-112933SAO  +1326DPG  V0201001N002610270019N0160001N1+00001-00051101361ADDAG10999GD12991+0135099GD23991+0270099GF107991999999999999999999MA1101251999999MW1001
0144690110999991990011715004+40200-112933SAO  +1326DPG  V0201801N003612200019N0480001N1-00161-00211101481ADDAA124999999AG10000GD12991+0090099GD22991+0240099GD32991+0600099GF102991999011999999071011MA1101321999999MD1310141+9999MW1001REMAWY008314 1171
0117690110999991990011716004+40200-112933SAO  +1326DPG  V0200901N002610600019N0800001N1+00001-00051101511ADDAG10999GD12991+0090099GD22991+0180099GD32991+0240099GD43991+0600099GF107991999999999999999999MA1101391999999MW1001
0132690110999991990011717004+40200-112933SAO  +1326DPG  V0201001N003112200019N0800001N1+00061-00051101541ADDAG10999GD12991+0180099GD22991+0240099GD32991+0600099GF102991999999999999999999MA1101421999999MW1001REMAWY021LWR CU OVR MTNS NE-SE
0185690110999991990011718004+40200-112933SAO  +1326DPG  V0200501N003610600019N0800001N1+00221+00061101571ADDAA124999999AG10000GD12991+0180099GD22991+0240099GD32991+0360099GD43991+0600099GF107991999041999999071081MA1101491999999MD1110121+9999MW1001REMAWY034LWR SC OVR MTNS NE-SE/ 112 1478 29
0144690110999991990011719004+40200-112933SAO  +1326DPG  V0200401N004110600019N0800001N1+00501-00221101401ADDGA1021+018009999GA2021+024009999GA3021+036009999GA4071+060009999GF107991999999999999999999MA1101351999999MW1001REMAWY021LWR SC OVR MTNS NE-SE
0130690110999991990011720004+40200-112933SAO  +1326DPG  V0200101N004610360019N0800001N1+00501-00211101471ADDAG10999GD12991+0075099GD22991+0180099GD32991+0240099GD43991+0360099GF107991999999999999999999MA1101391999999MW1001REMAWY004HAZY
0165690110999991990011721004+40200-112933SAO  +1326DPG  V0200201N005110240019N0480001N1+00391-00211101451ADDAA124999999AG10000GD12991+0075099GD22991+0180099GD33991+0240099GD43991+0360099GF107991999051999999071081MA1101351999999MD1810081+9999MW1001REMAWY014HAZY/ 808 1578
0117690110999991990011722004+40200-112933SAO  +1326DPG  V0200201N003612200019N0800001N1+00561-00161101491ADDAG10999GD12991+0180099GD22991+0240099GD32991+0360099GD42991+0600099GF102991999999999999999999MA1101421999999MW1001
0114690110999991990011723004+40200-112933SAO  +1326DPG  V0200201N003612200019N0800001N1+00561-00171101491ADDGA1021+018009999GA2021+024009999GA3021+036009999GA4021+060009999GF102991999999999999999999MA1101421999999MW1001
0121690110999991990011800004+40200-112933SAO  +1326DPG  V0200301N004112200019N0800001N1+00281-00331101591ADDGA1021+024009999GA2021+036009999GF102991999999999999999999MA1101491999999MD1310101+9999MW1001REMAWY016310 1070 44 LAST
0077690110999991990011813004+40200-112933SAO  +1326DPG  V0202901N002112200019N0160001N1-00551-00711102161ADDAG10999GF100991999999999999999999MA1101931999999MW1001REMAWY01144422 FIRST
0057690110999991990011814004+40200-112933SAO  +1326DPG  V0202401N001012200019N0160001N1-00601-00711102201ADDAG10999GF100991999999999999999999MA1101931999999MW1001
0105690110999991990011815004+40200-112933SAO  +1326DPG  V0202301N001512200019N0320001N1-00661-00711102241ADDAA124999999AG10000GF100991999001999999071001MA1101961999999MD1210051+9999MW1001REMAWY014AC S/ 205 1070
0070690110999991990011816004+40200-112933SAO  +1326DPG  V0202301N001512200019N0320001N1-00381-00491102221ADDAG10999GF100991999999999999999999MA1102001999999MW1001REMAWY004AC S
0071690110999991990011817004+40200-112933SAO  +1326DPG  V0202401N002112200019N0320001N1-00101-00321102161ADDAG10999GF100991999999999999999999MA1102001999999MW1001REMAWY005SC SE
0097690110999991990011818004+40200-112933SAO  +1326DPG  V0202701N002612200019N0320001N1+00001-00271102121ADDAA124999999AG10000GF100991999999999999999999MA1102001999999MD1110021+9999MW1001REMAWY006102 20
0057690110999991990011819004+40200-112933SAO  +1326DPG  V0203001N002112200019N0320001N1+00221-00211101981ADDAG10999GF100991999999999999999999MA1101861999999MW1001
0106690110999991990011820004+40200-112933SAO  +1326DPG  V0200201N006212200019N0400001N1+00441-00271101871ADDAG10999GD12991+0300099GF102991999999999999999999MA1101801999999MW1001REMAWY025FEW CU OVR MTNS SE AND SW
0127690110999991990011821004+40200-112933SAO  +1326DPG  V0200101N005712200019N0400001N1+00441-00381101791ADDAA124999999AG10000GD13991+0600093GF107991999011999999001061MA1101731999999MD1610251+9999MW1001REMAWY021FEW CU SW-W/ 625 1106
0072690110999991990011822004+40200-112933SAO  +1326DPG  V0203201N002112200019N0400001N1+00501-00321101771ADDAG10999GD12991+0600093GF102991999999999999999999MA1101661999999MW1001
0072690110999991990011823004+40200-112933SAO  +1326DPG  V0200301N005112200019N0400001N1+00441-00381101761ADDAG10999GD13991+0600093GF107991999999999999999999MA1101661999999MW1001
0130690110999991990011900004+40200-112933SAO  +1326DPG  V0200301N005712200019N0400001N1+00281-00551101841ADDAA124999999AG10000GD12991+0600093GF102991999011999999001081MA1101691999999MD1510021+9999MW1001REMAWY024FEW CU/ 502 1108 43 LAST
0077690110999991990012213004+40200-112933SAO  +1326DPG  V0201401N001512200019N0160001N1-01161-01321102651ADDAG10999GF100991999999999999999999MA1102241999999MW1001REMAWY01144411 FIRST
0057690110999991990012214004+40200-112933SAO  +1326DPG  V0201301N001012200019N0160001N1-01211-01381102661ADDAG10999GF100991999999999999999999MA1102201999999MW1001
0114690110999991990012215004+40200-112933SAO  +1326DPG  V0201201N002112200019N0320001N1-01101-01271102511ADDAA124999999AG10000GD12991+0750093GF102991999001999999001011MA1102071999999MD1810191+9999MW1001REMAWY008819 1001
0072690110999991990012216004+40200-112933SAO  +1326DPG  V0200101N001512200019N0320001N1-00601-00821102391ADDAG10999GD12991+0750093GF102991999999999999999999MA1102031999999MW1001
0072690110999991990012217004+40200-112933SAO  +1326DPG  V0203001N001512200019N0320001N1-00161-00491102361ADDAG10999GD12991+0750099GF102991999999999999999999MA1102071999999MW1001
0097690110999991990012218004+40200-112933SAO  +1326DPG  V0202701N001512200019N0320001N1+00001-00431102391ADDAG10000GD13991+0750093GF107991999999999999999999MA1102131999999MW1001REMAWY016HAZY VSBY LWR S/
0085690110999991990012219004+40200-112933SAO  +1326DPG  V0202001N002112200019N0400001N1+00221-00431102301ADDAG10999GD14991+0750093GF108991999999999999999999MA1102031999999MW1001REMAWY004HAZY
0090690110999991990012220004+40200-112933SAO  +1326DPG  V0202901N001012200019N0560001N1+00441-00431102171ADDAG10999GD14991+0750093GF108991999999999999999999MA1101931999999MW1001REMAWY009FEW AC SE
0155690110999991990012221004+40200-112933SAO  +1326DPG  V0203001N001512200019N0560001N1+00671-00321101991ADDAA124999999AG10000GD14991+0750093GF108991999011999999031071MA1101801999999MD1810301+9999MW1001REMAWY049FEW CU OVR MTNS SW AND N     ?    AC SE/ 830 1137
0105690110999991990012222004+40200-112933SAO  +1326DPG  V0203101N003612200019N0560001N1+00391-00431102121ADDAG10999GD14991+0750093GF108991999999999999999999MA1101861999999MW1001REMAWY024FEW CU AND AC VSBY LWR W
0112690110999991990012223004+40200-112933SAO  +1326DPG  V0202701N002610750019N0560001N1+00221-00431102061ADDAG10999GD12991+0450099GD24991+0750099GF108991999999999999999999MA1101831999999MW1001REMAWY016FEW CU BINOVC SE
0156690110999991990012300004+40200-112933SAO  +1326DPG  V0203101N002110750019N0560001N1+00061-00431102161ADDAA124999999AG10000GD12991+0450099GD24991+0750099GF108991999011999999071081MD1210051+9999MW1001REMAWY050007/FRW CU BINOVC SE         ?    205 1178 44 LAST
0077690110999991990012313004+40200-112933SAO  +1326DPG  V0200201N000512200019N0320001N1-00931-01101102201ADDAG10999GF100991999999999999999999MA1101861999999MW1001REMAWY01144413 FIRST
0087690110999991990012314004+40200-112933SAO  +1326DPG  V0201001N002110600019N0320001N1-00881-00991102221ADDAG10999GD12991+0360099GD23991+0600099GF107991999999999999999999MA1101861999999MW1001
0121690110999991990012315004+40200-112933SAO  +1326DPG  V0200801N002612200019N0800001N1-00931-01101102251ADDAA124999999AG10000GD14991+0600093GF108991999001999999071071MA1101831999999MD1610051+9999MW1001REMAWY015AC NE/ 605 1077
0129690110999991990012316004+40200-112933SAO  +1326DPG  V0200701N00261054001EN0800001N1-00601-00771102211ADDAG10999GD13991+0540099GD24991+0600099GF108991999999999999999999MA1101831999999MW1001REMAWY033ACSL NE-E        ?    BINOVC S-SW
0129690110999991990012317004+40200-112933SAO  +1326DPG  V0200901N00151054001EN0800001N1-00321-00491102201ADDAG10999GD13991+0540099GD24991+0600099GF108991999999999999999999MA1101861999999MW1001REMAWY033ACSL NE-E        ?    BINOVC S-SW
0160690110999991990012318004+40200-112933SAO  +1326DPG  V0203201N00101054001EN0800001N1+00061-00381102211ADDAA124999999AG10000GD13991+0540099GD24991+0600099GF108991999001999999071081MA1101931999999MD1310081+9999MW1001REMAWY039VIRGA SE AC NE-E/      ?    308 1078 13
0111690110999991990012319004+40200-112933SAO  +1326DPG  V0203101N00101054001EN0800001N1+00391-00321102061ADDAG10999GD13991+0540099GD24991+0600099GF108991999999999999999999MA1101831999999MW1001REMAWY015VIRGA S ACSL NE
0088690110999991990012320004+40200-112933SAO  +1326DPG  V0201901N00051054001EN0800001N1+00611-00381101921ADDAG10999GD14991+0540099GF108991999999999999999999MA1101731999999MW1001REMAWY007AC N-NE
0151690110999991990012321004+40200-112933SAO  +1326DPG  V0201301N00101054001EN0800001N1+00611-00431101771ADDAA124999999AG10000GD13991+0540099GD24991+0600099GF108991999011999999021081MA1101591999999MD1810301+9999MW1001REMAWY030CU NE AND SW VIRGA S/ 830 1128
0125690110999991990012322004+40200-112933SAO  +1326DPG  V0201901N00151054001EN0800001N1+00781-00381101671ADDAG10999GD13991+0540099GD24991+0600099GF108991999999999999999999MA1101491999999MW1001REMAWY029CU NE AND SW     ?    VIRGA S
0087690110999991990012323004+40200-112933SAO  +1326DPG  V0202201N00101054001EN0800001N1+00891-00601101591ADDAG10999GD13991+0540099GD24991+0600099GF108991999999999999999999MA1101421999999MW1001
0164690110999991990012400004+40200-112933SAO  +1326DPG  V0202901N002110540019N0160001N1+00611-00601101661ADDAA124999999AG10000GD12991+0360099GD24991+0540099GF108991999011999999071999MA1101461999999MD1510101+9999MW1001REMAWY043BC W VIRGA ALQDS FEW CU E/ 510 117/ 48 LAST
0077690110999991990012413004+40200-112933SAO  +1326DPG  V0201901N001512200019N0800001N1-00931-01551102971ADDAG10999GF100991999999999999999999MA1102681999999MW1001REMAWY01144815 FIRST
0057690110999991990012414004+40200-112933SAO  +1326DPG  V0201201N002612200019N0800001N1-01101-01551103071ADDAG10999GF100991999999999999999999MA1102741999999MW1001
0114690110999991990012415004+40200-112933SAO  +1326DPG  V0201401N001512200019N0800001N1-00991-01431103171ADDAA124999999AG10000GD12991+0750099GF102991999001999999001011MA1102841999999MD1310141+9999MW1001REMAWY008314 1001
0072690110999991990012416004+40200-112933SAO  +1326DPG  V0201201N002112200019N0800001N1-00661-01101103211ADDAG10999GD12991+0750099GF102991999999999999999999MA1102911999999MW1001
0070690110999991990012417004+40200-112933SAO  +1326DPG  V0201401N001512200019N0800001N1-00271-00991103221ADDAG10999GF100991999999999999999999MA1102981999999MW1001REMAWY004CI W
0079690110999991990012418004+40200-112933SAO  +1326DPG  V0201601N001012200019N0800001N1+00001-01001103281ADDGF100991999999999999999999MA1103081999999MD1310201+9999MW1001REMAWY006320 11
0070690110999991990012419004+40200-112933SAO  +1326DPG  V0202601N001512200019N0800001N1+00281-00881103251ADDAG10999GF100991999999999999999999MA1103081999999MW1001REMAWY004CI W
0070690110999991990012420004+40200-112933SAO  +1326DPG  V0203001N002112200019N0800001N1+00221-01051103241ADDAG10999GF100991999999999999999999MA1103011999999MW1001REMAWY004CI W
0114690110999991990012421004+40200-112933SAO  +1326DPG  V0202901N003612200019N0800001N1+00221-01161103151ADDAA124999999AG10000GD12991+0750093GF102991999001999999001011MA1102951999999MD1810121+9999MW1001REMAWY008812 1001
0072690110999991990012422004+40200-112933SAO  +1326DPG  V0203201N001512200019N0800001N1+00331-01161103091ADDAG10999GD12991+0750093GF102991999999999999999999MA1102881999999MW1001
0072690110999991990012423004+40200-112933SAO  +1326DPG  V0203201N001512200019N0800001N1+00391-01211103071ADDAG10999GD13991+0750093GF107991999999999999999999MA1102881999999MW1001
0122690110999991990012500004+40200-112933SAO  +1326DPG  V0201501N001512200019N0800001N1+00221-01321103141ADDAA124999999AG10000GD13991+0750093GF107991999001999999001061MA1102841999999MD1710081+9999MW1001REMAWY016708 1006 40 LAST
0092690110999991990012513004+40200-112933SAO  +1326DPG  V0201101N003112200019N0160001N1-00991-01381103111ADDAG10999GD12991+0750093GF102991999999999999999999MA1102681999999MW1001REMAWY01144011 FIRST
0072690110999991990012514004+40200-112933SAO  +1326DPG  V0201401N001512200019N0160001N1-00881-01551103131ADDAG10999GD12991+0750093GF102991999999999999999999MA1102681999999MW1001
0114690110999991990012515004+40200-112933SAO  +1326DPG  V0201401N003112200019N0800001N1-00661-01321103131ADDAA124999999AG10000GD13991+0750093GF107991999001999999001061MA1102681999999MD1510051+9999MW1001REMAWY008505 1006
0087690110999991990012516004+40200-112933SAO  +1326DPG  V0201301N00211075001EN0800001N1-00491-01211103101ADDAG10999GD13991+0750099GF107991999999999999999999MA1102681999999MW1001REMAWY006AC N-E
0108690110999991990012517004+40200-112933SAO  +1326DPG  V0201301N004612200019N0800001N1-00051-01101103051ADDAG10999GD12991+0450099GD24991+0750093GF108991999999999999999999MA1102711999999MW1001REMAWY012ACSL S AND W
0111690110999991990012518004+40200-112933SAO  +1326DPG  V0201501N00211045001EN0800001N1+00281-01051102971ADDAG10000GD13991+0450099GD24991+0750099GF108991999999999999999999MA1102681999999MW1001REMAWY015ACSL SE AND SW/
0098690110999991990012519004+40200-112933SAO  +1326DPG  V0201901N00721045001EN0800001N1+00561-01331102911ADDGA1071+045009999GA2081+075009999GF108991999999999999999999MA1102641999999MW1001REMAWY007ACSL SW
0124690110999991990012520004+40200-112933SAO  +1326DPG  V0201801N006210450019N0800001N1+00561-01391102731ADDGA1021+033009999GA2071+045009999GA3081+060009999GF108991999999999999999999MA1102441999999MW1001REMAWY017ACSL SW BINOVC SE
0113690110999991990012521004+40200-112933SAO  +1326DPG  V0201801N00671033001EN0800001N1+00611-01331102561ADDGA1071+033009999GA2081+045009999GF108991999999999999999999MA1102271999999MD1810361+9999MW1001REMAWY008836 105/
0074690110999991990012522004+40200-112933SAO  +1326DPG  V0201701N00671033001EN0800001N1+00671-01331102281ADDGA1081+033009999GF108991999999999999999999MA1102031999999MW1001OC101081
0158690110999991990012523004+40200-112933SAO  +1326DPG  V0201901N00461033001EN9999999N9+00611-01321102361ADDAG10999GD13991+0330099GD24991+0450099GF108991999999999999999999MA1102131999999MW1001REMAWY043BINOVC NW AND NE       ?    HIR CLDS VSB NWEQDQ01+000002VOVAR 
0182690110999991990012600004+40200-112933SAO  +1326DPG  V0201301N001010450019N0800001N1+00501-01381102341ADDAA124999999AG10000GD12991+0330099GD24991+0450099GF108991999001999999071999MA1102101999999MD1710171+9999MW1001REMAWY061BINOVC ALQDS HIR CLDS        ?    VSB ALQDS/ 717 107/ 45 LAST
0092690110999991990012913004+40200-112933SAO  +1326DPG  V0202101N002612200019N0800001N1+00061-01271101061ADDAG10999GD12991+0270099GF102991999999999999999999MA1100981999999MW1001REMAWY01144431 FIRST
0072690110999991990012914004+40200-112933SAO  +1326DPG  V0202101N00151027001EN0800001N1+00061-01161101161ADDAG10999GD13991+0270099GF107991999999999999999999MA1101081999999MW1001
0155690110999991990012915004+40200-112933SAO  +1326DPG  V0203201N00931012001EN0160001N1+00171-00431101241ADDAA124999999AG10000GD14991+0120099GF108991999061999999999999MA1101191999999MD1310221+9999MW1001OC101241REMAWY041VIRGA ALQDS S U SE AND NW AND N/ 322 16//
0118690110999991990012916004+40200-112933SAO  +1326DPG  V0201701N001010210019N0480001N1+00001-00321101361ADDAG10999GD12991+0120099GD23991+0210099GD33991+0300099GF107991999999999999999999MA1101291999999MW1001REMAWY007SB05E40
0111690110999991990012917004+40200-112933SAO  +1326DPG  V0202901N003112200019N0800001N1+00441+00001101381ADDAG10999GD12991+0210099GD22991+0300099GF102991999999999999999999MA1101321999999MW1001REMAWY015FEW CUFRA ALQDS
0134690110999991990012918004+40200-112933SAO  +1326DPG  V0203401N002112200019N0800001N1+00561-00321101441ADDAA124999999AG10000GD12991+0210099GD22991+0300099GF102991999011999999071001MA1101391999999MD1210151+9999MW1001REMAWY01321500 1170 31
0087690110999991990012919004+40200-112933SAO  +1326DPG  V0203001N006712200019N0800001N1+00561-00601101441ADDAG10999GD12991+0150099GD22991+0300099GF102991999999999999999999MA1101391999999MW1001
0118690110999991990012920004+40200-112933SAO  +1326DPG  V0203201N00671015001EN0800001N1+00561-00551101341ADDAG10999GD13991+0150099GD23991+0300099GF107991999999999999999999MA1101321999999MW1001REMAWY022MDT CU NE-SE SWU NE-SE
0147690110999991990012921004+40200-112933SAO  +1326DPG  V0203101N005112200019N0800001N1+00611-00661101271ADDAA124999999AG10000GD12991+0180099GD22991+0300099GF102991999021999999031001MA1101291999999MD1810081+9999MW1001REMAWY026MDT CU NE SWU NE/ 808 1230
0116690110999991990012922004+40200-112933SAO  +1326DPG  V0203401N003612200019N0800001N1+00671-00781101261ADDGA1021+018009999GA2021+030009999GA3021+060009999GF102991999999999999999999MA1101251999999MW1001REMAWY009MDT CU NE
0105690110999991990012923004+40200-112933SAO  +1326DPG  V0203601N002112200019N0800001N1+00721-00821101291ADDAG10999GD12991+0300099GD22991+0600099GF102991999999999999999999MA1101291999999MW1001REMAWY009FEW CU NE
0144690110999991990013000004+40200-112933SAO  +1326DPG  V0200201N002112200019N0800001N1+00671-00881101301ADDAA124999999AG10000GD12991+0600093GF102991999001999999041011MA1101291999999MD1010001+9999MW1001REMAWY038FEW ACSL N/      ?    000 1041 46 LAST
0107690110999991990013013004+40200-112933SAO  +1326DPG  V0201801N007710300019N0160001N1+00501-00881100291ADDAG10999GD12991+0180099GD24991+0300099GF108991999999999999999999MA1100271999999MW1001REMAWY01144619 FIRST
0095690110999991990013014004+40200-112933SAO  +1326DPG  V0201701N007210300019N0160001N1+00501-00931100321ADDAG10999GD12991+0180099GD24991+0300099GF108991999999999999999999MA1100241999999MW1001OC101081
0161690110999991990013015004+40200-112933SAO  +1326DPG  V0201701N007210360019N0800001N1+00501-01051100261ADDAA124999999AG10000GD12991+0300099GD23991+0360099GD34991+0540099GF108991999051999999071999MA1100201999999MD1710141+9999MW1001OC101081REMAWY017SC N-NE/ 714 157/
0126690110999991990013016004+40200-112933SAO  +1326DPG  V0201801N007710360019N0800001N1+00611-01101100231ADDAG10999GD12991+0300099GD23991+0360099GD34991+0660099GF108991999999999999999999MA1100141999999MW1001OC101131REMAWY007SC N-NE
0136690110999991990013017004+40200-112933SAO  +1326DPG  V0201701N008810360019N0640001N1+00721-01161100181ADDAG10999GD12991+0300099GD23991+0360099GD34991+0660099GF108991999999999999999999MA1100101999999MW1001OC101391REMAWY017VIRGA SE BD ALQDS
0163690110999991990013018004+40200-112933SAO  +1326DPG  V0201801N010310360019N0640001N1+00781-01161100191ADDAA124999999AG10000GD12991+0300099GD24991+0360099GF108991999001999999071999MA1100101999999MD1610021+9999MW1001OC101491REMAWY034BD ALQDS         ?    /602 107/ 19
0112690110999991990013019004+40200-112933SAO  +1326DPG  V0201701N011310360019N0480001N1+00831-01161099981ADDAG10999GD12991+0300099GD24991+0360099GF108991999999999999999999MA1099931999999MW1001OC101601REMAWY008BD ALQDS
0150690110999991990013020004+40200-112933SAO  +1326DPG  V0201701N009310360019N0480001N1+00891-01161099871ADDAG10999GD12991+0300099GD24991+0360099GF108991999999999999999999MA1099861999999MW1001OC101541REMAWY046PK WND 1735/20         ?    BINOVC SW BD ALQDS
0171690110999991990013021004+40200-112933SAO  +1326DPG  V0201701N009810360019N0320001N1+01001-01161099751ADDAA124999999AG10000GD12991+0300099GD24991+0360099GF108991999001999999071999MA1099801999999MD1610241+9999MW1001OC101441REMAWY042BINOVC SW BD ALQDS/          ?    624 107/
0112690110999991990013022004+40200-112933SAO  +1326DPG  V0201801N008210390019N0320001N1+01061-01161099621ADDAG10999GD12991+0300099GD24991+0390099GF108991999999999999999999MA1099701999999MW1001OC101441REMAWY008BD ALQDS
0104690110999991990013023004+40200-112933SAO  +1326DPG  V0201901N008810390019N0320001N1+00941-01161099601ADDAG10999GD12991+0300099GD23991+0390099GF107991999999999999999999MA1099701999999MW1001REMAWY008BD ALQDS
0164690110999991990013100004+40200-112933SAO  +1326DPG  V0201601N010810450019N0320001N1+00891-01101099591ADDAA124999999AG10000GD12991+0300099GD23991+0450099GF107991999001999999071001MA1099661999999MD1610121+9999MW1001OC101491REMAWY035BD ALQDS/612 1070      ?    51 LAST
0128690110999991990013113004+40200-112933SAO  +1326DPG  V0201501N002110150019N0160001N1-00321-00381100491ADDAG10999GD12991+0045099GD22991+0090099GD34991+0150099GF108991999999999999999999MA1100471999999MW1001REMAWY01720004 45126 FIRST
0102690110999991990013114004+40200-112933SAO  +1326DPG  V0202701N000510150019N0160001N1-00381-00381100601ADDAG10999GD12991+0090099GD23991+0150099GD34991+0600099GF108991999999999999999999MA1100541999999MW1001
0140690110999991990013115004+40200-112933SAO  +1326DPG  V0203401N003110150019N0160001N1-00321-00381100721ADDAA124999999AG10000GD12991+0075099GD24991+0150099GF108991999051999999021999MA1100641999999MD1210221+9999MW1001REMAWY019VIS LWR N/ 222 152/
0115690110999991990013116004+40200-112933SAO  +1326DPG  V0203601N000510150019N0320001N1-00211-00211100801ADDAG10999GD12991+0075099GD23991+0150099GD33991+0600099GF107991999999999999999999MA1100751999999MW1711REMAWY004SB06
0111690110999991990013117004+40200-112933SAO  +1326DPG  V0201001N001012200019N0800001N1+00061+00001100921ADDGA1021+009009999GA2021+015009999GA3021+060009999GF102991999999999999999999MA1100851999999MW1001REMAWY004SE21
0162690110999991990013118004+40200-112933SAO  +1326DPG  V0201001N001012200019N0320001N1+00561+00001100981ADDAA124999999AG10000GD12991+0015099GD22991+0045099GD32991+0150099GD42991+0600099GF102991999081999999001081MA1100981999999MD1210301+9999MW1001REMAWY011230 1808 25
0102690110999991990013119004+40200-112933SAO  +1326DPG  V0201401N001512200019N0480001N1+00281-00051101031ADDAG10999GD12991+0045099GD22991+0150099GD32991+0600099GF102991999999999999999999MA1100951999999MW1001
0072690110999991990013120004+40200-112933SAO  +1326DPG  V0201801N001512200019N0640001N1+00281+00001100941ADDAG10999GD12991+0045099GF102991999999999999999999MA1100881999999MW1001
0114690110999991990013121004+40200-112933SAO  +1326DPG  V0200601N000512200019N0800001N1+00391-00101100891ADDAA124999999AG10000GD12991+0075099GF102991999011999999001001MA1100811999999MD1710141+9999MW1001REMAWY008714 1100
0086690110999991990013122004+40200-112933SAO  +1326DPG  V0201601N002612200019N0800001N1+00391-00161100861ADDAG10999GD12991+0075099GF102991999999999999999999MA1100781999999MW1001REMAWY005SWU N
0087690110999991990013123004+40200-112933SAO  +1326DPG  V0201501N002112200019N0800001N1+00561-00161100841ADDAG10999GD12991+0075099GF102991999999999999999999MA1100781999999MW1001REMAWY006SWU NE
0137690110999991990020100004+40200-112933SAO  +1326DPG  V0201401N001512200019N0800001N1+00441-00321100851ADDAA124999999AG10000GD12991+0150099GD22991+0600099GF102991999011999999001081MA1100781999999MD1810051+9999MW1001REMAWY016805 1108 42 LAST
0107690110999991990020113004+40200-112933SAO  +1326DPG  V0201801N002110600019N0240001N1-00101-00381100651ADDAG10999GD12991+0360099GD24991+0600099GF108991999999999999999999MA1100541999999MW1001REMAWY01144224 FIRST
0087690110999991990020114004+40200-112933SAO  +1326DPG  V0203301N003110600019N0240001N1-00161-00381100701ADDAG10999GD12991+0360099GD24991+0600099GF108991999999999999999999MA1100541999999MW1001
0087690110999991990020114204+40200-112933SAOSP+1326DPG  V0203201N00411007501EN0080001N1+99999+99999999999ADDAG10999GD13991+0075099GD24991+0360099GF108991999999999999999999MA1100611999999MW1711
0107690110999991990020114404+40200-112933SAOSP+1326DPG  V0203201N002610045019N0040001N1+99999+99999999999ADDAG10999GD16991+0001599GD24991+0045099GF108991999999999999999999MA1100611999999MW1451MW2711REMAWY005SB 18
0142690110999991990020115004+40200-112933SAO  +1326DPG  V0203201N002610045019N0040001N1-00161-00271100791ADDAA124999999AG10004GD16991+0001599GD24991+0045099GF108991999061999999999999MA1100611999999MD1310071+9999MW1451MW2711REMAWY015SB18/30700 16//
0072690110999991990020115074+40200-112933SAOSP+1326DPG  V0203601N00101004501EN0080001N1+99999+99999999999ADDAG10004GD14991+0045099GF108991999999999999999999MA1100611999999MW1711
0072690110999991990020115394+40200-112933SAOSP+1326DPG  V0203401N00101003301WN0028001N1+99999+99999999999ADDAG10004GD15991+0033099GF109991999999999999999999MA1100581999999MW1711
0072690110999991990020116004+40200-112933SAO  +1326DPG  V0200101N00051002701WN0012001N1-00101-00161100781ADDAG10999GD15991+0027099GF109991999999999999999999MA1100581999999MW1711
0078690110999991990020116314+40200-112933SAOSP+1326DPG  V0209991C00001002701WN0008001N1+99999+99999999999ADDAG10999GD15991+0027099GF109991999999999999999999MA1100581999999MW1451MW2711
0078690110999991990020117004+40200-112933SAO  +1326DPG  V0203201N00051002701WN0008001N1+00001-00101100741ADDAG10999GD15991+0027099GF109991999999999999999999MA1100581999999MW1451MW2711
0126690110999991990020118004+40200-112933SAO  +1326DPG  V0201801N00051002101WN0006001N1+00061-00051100751ADDAA124999999AG10011GD15991+0021099GF109991999999999999999999MA1100581999999MD1510021+9999MW1451MW2731REMAWY01450205 90401 24
0099690110999991990020119004+40200-112933SAO  +1326DPG  V0202801N000510045019N0008001N1+00281+00171100661ADDGA1101+000159999GA2081+004509999GF108991999999999999999999MA1100541999999MW1451MW2711REMAWY002S7
0119690110999991990020119154+40200-112933SAOSP+1326DPG  V0202901N002110030019N0064001N1+99999+99999999999ADDAG10999GD16991+0001599GD23991+0030099GD34991+0045099GF108991999999999999999999MA1100541999999MW1451MW2711REMAWY002S1
0113690110999991990020120004+40200-112933SAO  +1326DPG  V0203001N003110030019N0128001N1+00171+00001100661ADDAG10999GD16991+0001599GD23991+0030099GD34991+0045099GF108991999999999999999999MA1100511999999MW1711REMAWY002F1
0161690110999991990020121004+40200-112933SAO  +1326DPG  V02099999999990030019N0128001N1+99999+99999100641ADDAA124999999AG10004GD16991+0001599GD23991+0030099GD34991+0045099GF108991999061999999999999MD1610071+9999MW1711REMAWY022311/968/F1/ 60700 16//AWY012RJCT40  2743
0111690110999991990020122004+40200-112933SAO  +1326DPG  V0203101N005710075019N0240001N1+00171+00111100611ADDAG10999GD12991+0030099GD24991+0075099GF108991999999999999999999MA1100511999999MW1001REMAWY015SE16 VSBY LWR E
0135690110999991990020123004+40200-112933SAO  +1326DPG  V0200101N005710180019N0240001N1+00171-00101100771ADDAG10999GD12991+0030099GD23991+0180099GD34991+0300099GF108991999999999999999999MA1100681999999MW1001REMAWY024SE15/ 31400 161/ 38 LAST
0144690110999991990020200004+40200-112933SAO  +1326DPG  V0200101N005710180019N0240001N1+00171-00111100771ADDGA1021+003009999GA2071+018009999GA3081+030009999GF108991999999999999999999MA1100681999999MD1310141+9999MW1001REMAWY023SE15/31400 161/ 38 LAST
0092690110999991990020513004+40200-112933SAO  +1326DPG  V0200701N001512200019N0160001N1-00931-01051102211ADDAG10999GD12991+0600093GF102991999999999999999999MA1101931999999MW1001REMAWY01144015 FIRST
0072690110999991990020514004+40200-112933SAO  +1326DPG  V0201201N002612200019N0160001N1-00991-01101102301ADDAG10999GD12991+0600093GF102991999999999999999999MA1101961999999MW1001
0148690110999991990020515004+40200-112933SAO  +1326DPG  V0201201N002112200019N0160001N1-00991-01161102421ADDAA124999999AG10000GD12991+0600093GF102991999051999999071011MA1102031999999MD1310121+9999MW1001REMAWY042FEW SC E FEW AC E-S/         ?    312 1571
0130690110999991990020516004+40200-112933SAO  +1326DPG  V0202201N000512200019N0800001N1-00711-00881102421ADDAG10999GD12991+0300099GD22991+0600093GF102991999999999999999999MA1102131999999MW1001REMAWY034FEW ST E         ?    FEW SC NE-SE
0130690110999991990020517004+40200-112933SAO  +1326DPG  V0200901N000512200019N0800001N1-00101-00431102371ADDAG10999GD12991+0300093GD22991+0600093GF102991999999999999999999MA1102131999999MW1001REMAWY034FEW ST NE        ?    FEW SC NE-SE
0167690110999991990020518004+40200-112933SAO  +1326DPG  V0202301N000512200019N0800001N1+00111-00321102331ADDAA124999999AG10000GD12991+0300093GD22991+0600093GF102991999051999999071011MA1102131999999MD1110101+9999MW1001REMAWY046FEW ST NE FEW SC NE-SE       ?    /110 1571 13
0120690110999991990020519004+40200-112933SAO  +1326DPG  V0200401N000512200019N0800001N1+00391-00491102261ADDAG10999GD12991+0600093GF102991999999999999999999MA1102101999999MW1001REMAWY039FEW ST NE FEW SC OMTNS       ?    NE-SE
0084690110999991990020520004+40200-112933SAO  +1326DPG  V0203101N003112200019N0800001N1+00391-00601102231ADDAG10999GF100991999999999999999999MA1102031999999MW1001REMAWY018FEW SC OMTNS NE-SE
0137690110999991990020521004+40200-112933SAO  +1326DPG  V0203101N002612200019N0800001N1+00391-00601102161ADDAA124999999AG10000GF100991999999999999001001MA1101961999999MD1710151+9999MW1001REMAWY027FEW SC OMTNS NE-SE/715 1500EQDQ01    053SCOLCG
0089690110999991990020522004+40200-112933SAO  +1326DPG  V0203001N002112200019N0800001N1+00441-00601102211ADDAG10999GF100991999999999999999999MA1102001999999MW1001REMAWY023FEW SC OMTNS NE-SE CI W
0095690110999991990020523004+40200-112933SAO  +1326DPG  V0203001N001512200019N0800001N1+00501-00551102201ADDAG10999GD12991+0750093GF102991999999999999999999MA1102001999999MW1001REMAWY014FEW SC OMTNS E
0122690110999991990020600004+40200-112933SAO  +1326DPG  V0201501N000512200019N0800001N1+00561-00601102211ADDAA124999999AG10000GD12991+0750093GF102991999001999999001091MA1102001999999MD1110051+9999MW1001REMAWY016105 1009 43 LAST
0092690110999991990020613004+40200-112933SAO  +1326DPG  V0201101N001012200019N0160001N1-00431-00771101981ADDAG10999GD12991+0360099GF102991999999999999999999MA1101801999999MW1001REMAWY01144321 FIRST
0072690110999991990020614004+40200-112933SAO  +1326DPG  V0201601N002612200019N0320001N1-00381-00711101991ADDAG10999GD12991+0360099GF102991999999999999999999MA1101731999999MW1001
0129690110999991990020615004+40200-112933SAO  +1326DPG  V0201101N001512200019N0800001N1-00551-00821102081ADDAA124999999AG10000GD12991+0360099GD24991+0600093GF108991999001999999071091MA1101731999999MD1810051+9999MW1001REMAWY008805 1079
0097690110999991990020616004+40200-112933SAO  +1326DPG  V02099999999992200019N9999999N9+99999+99999999999ADDAG10999GD12991+0450099GF102991999999999999999999REMAWY018192/26/21/1306/002EQDQ01+000002VOVAR 
0103690110999991990020617004+40200-112933SAO  +1326DPG  V0201001N003110600019N0800001N1+00221-00381101811ADDAG10999GD12991+0360099GD24991+0600099GF108991999999999999999999MA1101661999999MW1001REMAWY007ACSL SE
0158690110999991990020618004+40200-112933SAO  +1326DPG  V0201801N00671036001EN0800001N1+00441-00491101721ADDAA124999999AG10000GD13991+0360099GD24991+0600099GF108991999001999999041081MA1101631999999MD1710121+9999MW1001OC101081REMAWY029ACSL SE/ 712     ?    1048 21
0126690110999991990020619004+40200-112933SAO  +1326DPG  V0201801N006210360019N0800001N1+00561-00431101541ADDAG10999GD12991+0150099GD23991+0360099GD34991+0600099GF108991999999999999999999MA1101491999999MW1001REMAWY015SWU NE OVR MTNS
0122690110999991990020620004+40200-112933SAO  +1326DPG  V0201801N006210360019N0800001N1+00561-00441101541ADDGA1021+015009999GA2071+036009999GA3081+060009999GF108991999999999999999999MA1101491999999MW1001REMAWY015SWU NE OVR MTNS
0196690110999991990020621004+40200-112933SAO  +1326DPG  V0201801N00671015001EN0800001N1+00561-00491101481ADDAA124999999AG10000GD13991+0150099GD24991+0360099GF108991999051999999071999MA1101391999999MD1810191+9999MW1001REMAWY075VIRGA NW-N BINOVC W-NW       ?    HIR CLDS VSB NW SWU NE OVR MTNS/ 819 157/
0160690110999991990020622004+40200-112933SAO  +1326DPG  V0201801N00771015001EN0800001N1+00561-00491101421ADDAG10999GD13991+0150099GD24991+0360099GF108991999999999999999999MA1101321999999MW1001REMAWY064VIRGA ALQDS BINOVC W         ?    HIR CLDS VSB W SWU NE OVR MTNS
0126690110999991990020623004+40200-112933SAO  +1326DPG  V0201601N01031015001EN0800001N1+00611-00491101271ADDAG10999GD13991+0150099GD23991+0360099GD33991+0600099GF107991999999999999999999MA1101221999999MW1001OC101291REMAWY007ACSL SW
0184690110999991990020700004+40200-112933SAO  +1326DPG  V0201801N007212200019N0800001N1+00611-00431101291ADDAA124999999AG10000GD12991+0150099GD22991+0270099GD32991+0360099GD43991+0600093GF107991999011999999041091MA1101191999999MD1710191+9999MW1001OC101081REMAWY025ACSL SW/ 719 1149 44 LAST
0100690110999991990020713004+40200-112933SAO  +1326DPG  V0200101N00571006001EN0032001N1-00271-00431101481ADDAG10999GD14991+0060099GF108991999999999999999999MA1101391999999MW1711OC100881REMAWY01144427 FIRST
0098690110999991990020714004+40200-112933SAO  +1326DPG  V0200101N006210060019N0048001N1-00321-00381101571ADDAG10999GD16991+0001599GD24991+0060099GF108991999999999999999999MA1101461999999MW1711REMAWY002S2
0111690110999991990020715004+40200-112933SAO  +1326DPG  V0203601N00621003001WN0024001N1-00321-00551101651ADDAA124999999AG10004GD15991+0030099GF109991999999999999999999MA1101521999999MD1310151+9999MW1711REMAWY00531500
0072690110999991990020715304+40200-112933SAOSP+1326DPG  V0200101N00621002101WN0016001N1+99999+99999999999ADDAG10004GD15991+0021099GF109991999999999999999999MA1101631999999MW1711
0078690110999991990020716004+40200-112933SAO  +1326DPG  V0203401N00311001801WN0008001N1-00381-00381101811ADDAG10999GD15991+0018099GF109991999999999999999999MA1101691999999MW1451MW2731
0072690110999991990020717004+40200-112933SAO  +1326DPG  V0202901N00211001801WN0008001N1-00281-00391101841ADDGA1091+001809999GF109991999999999999999999MA1101731999999MW1451MW2731
0155690110999991990020718004+40200-112933SAO  +1326DPG  V0203601N00411001801WN0032001N1-00271-00381101881ADDAA124999999AG10004GD15991+0018099GF109991999999999999999999MA1101761999999MD1210201+9999MW1451MW2711REMAWY043VSBY SW1 AND NW1/2     ?    /22003 90401 25
0088690110999991990020718304+40200-112933SAOSP+1326DPG  V0200101N00411003601WN0048001N1+99999+99999999999ADDAG10004GD15991+0036099GF109991999999999999999999MA1101801999999MW1711REMAWY007VSBY W2
0072690110999991990020719004+40200-112933SAO  +1326DPG  V0200101N00411003601WN0020001N1-00211-00431101931ADDAG10999GD15991+0036099GF109991999999999999999999MA1101801999999MW1711
0089690110999991990020719304+40200-112933SAOSP+1326DPG  V0200101N00311003601WN0032001N1+99999+99999999999ADDAG10999GD15991+0036099GF109991999999999999999999MA1101801999999MW1711REMAWY008SUN VSBL
0066690110999991990020720004+40200-112933SAO  +1326DPG  V0203101N00151003601WN0064001N1-00171-00331101921ADDGA1091+003609999GF109991999999999999999999MA1101801999999MW1711
0100690110999991990020721004+40200-112933SAO  +1326DPG  V0203201N00571003601WN0064001N1-00281-00391101941ADDGA1091+003609999GF109991999999999999999999MA1101801999999MD1010021+9999MW1711REMAWY01100201 90401
0117690110999991990020722004+40200-112933SAO  +1326DPG  V0200201N003110060019N0112001N1-00171-00441101971ADDGA1101+000159999GA2021+003009999GA3081+006009999GF108991999999999999999999MA1101801999999MW1711REMAWY010S1 SE25B50
0116690110999991990020723004+40200-112933SAO  +1326DPG  V0200201N003610105019N0160001N1-00211-00551102031ADDAG10999GD12991+0030099GD24991+0105099GF108991999999999999999999MA1101831999999MW1001REMAWY020SE30 SWU OMTNS ALQDS
0117690110999991990020800004+40200-112933SAO  +1326DPG  V0203501N00261010501EN0080001N1-00281-00671102081ADDGA1081+010509999GF108991999999999999999999MA1101861999999MD1310071+9999MW1711REMAWY028SWU ALQDS/30701 16// 29 LAST
0110690110999991990020813004+40200-112933SAO  +1326DPG  V0201101N002112200019N0048001N1-01321-01491102301ADDAG10999GD16991+0001599GD22991+0003099GF102991999999999999999999MA1101831999999MW1451REMAWY014F3/42912 FIRST
0091690110999991990020813284+40200-112933SAOSP+1326DPG  V0201701N002112200019N0080001N1+99999+99999999999ADDAG10999GD12991+0003099GF102991999999999999999999MA1101831999999MW1451REMAWY010VSBY LWR W
0094690110999991990020814004+40200-112933SAO  +1326DPG  V0201601N001512200019N0160001N1-01431-01601102351ADDAG10999GD16991+0001599GF110991999999999999999999MA1101831999999MW1001REMAWY013F4 VSBY LWR W
0152690110999991990020815004+40200-112933SAO  +1326DPG  V0209991C000012200019N0800001N1-01491-01661102441ADDAA124999999AG10000GF100991999999999999001001MA1101901999999MD1310021+9999MW1001REMAWY042FEW ST OVR MTNS ALQDS/       ?    302 1600EQDQ01    063SCOLCG
0087690110999991990020816004+40200-112933SAO  +1326DPG  V0201001N001012200019N0800001N1-00991-01101102351ADDAG10999GF100991999999999999999999MA1101901999999MW1001REMAWY021LOW ST AND FBANK SE-S
0082690110999991990020817004+40200-112933SAO  +1326DPG  V0201001N001012200019N0800001N1-00491-00661102281ADDAG10999GF100991999999999999999999MA1101931999999MW1001REMAWY016LOW ST E-S CI NW
0159690110999991990020818004+40200-112933SAO  +1326DPG  V0201801N006712200019N0800001N1-00381-00711102271ADDAA124999999AG10000GD12991+0600093GF102991999061999999071081MA1101901999999MD1010001+9999MW1001OC100981REMAWY045ST OVR MTNS N-S AC NW/       ?    000 1678 04
0086690110999991990020819004+40200-112933SAO  +1326DPG  V0201701N007712200019N0800001N1-00271-00661102231ADDAG10999GF100991999999999999999999MA1101831999999MW1001REMAWY020ST SE-S CI N-E AND W
0103690110999991990020820004+40200-112933SAO  +1326DPG  V0201701N007212200019N0800001N1-00161-00661102201ADDAG10999GF100991999999999999999999MA1101801999999MW1001OC100981REMAWY029ST SE SC NW AND NE CI E AND W
0147690110999991990020821004+40200-112933SAO  +1326DPG  V0201701N005712200019N0800001N1-00101-00661102151ADDAA124999999AG10000GF100991999999999999001001MA1101731999999MD1710151+9999MW1001OC100881REMAWY029SC W-N AND NE ST SE/ 715 1500EQDQ01    053SCOLCG
0073690110999991990020822004+40200-112933SAO  +1326DPG  V0201801N006212200019N0800001N1-00051-00711102131ADDAG10999GF100991999999999999999999MA1101691999999MW1001REMAWY007SC W-NE
0095690110999991990020823004+40200-112933SAO  +1326DPG  V0201901N005712200019N0800001N1+00001-00711102101ADDAG10999GD12991+0240099GD22991+0540099GF102991999999999999999999MA1101691999999MW1001OC100881
0137690110999991990020900004+40200-112933SAO  +1326DPG  V0201901N00511036001EN0800001N1+00001-00661102061ADDAA124999999AG10000GD13991+0360099GD23991+0540099GF107991999001999999071001MA1101691999999MD1510021+9999MW1001REMAWY016502 1070 32 LAST
0092690110999991990021213004+40200-112933SAO  +1326DPG  V0200801N00211030001EN0160001N1+00331-00101100861ADDAG10999GD14991+0300099GF108991999999999999999999MA1100951999999MW1001REMAWY01145635 FIRST
0072690110999991990021214004+40200-112933SAO  +1326DPG  V0200901N00211030001EN0160001N1+00281-00101100831ADDAG10999GD14991+0300099GF108991999999999999999999MA1100881999999MW1001
0139690110999991990021215004+40200-112933SAO  +1326DPG  V0200801N00151030001EN0240001N1+00391-00051100781ADDAA124999999AG10000GD13991+0300099GD24991+0600099GF108991999011999999071081MA1100811999999MD1710121+9999MW1001REMAWY018FEW CU SW/712 1178
0105690110999991990021216004+40200-112933SAO  +1326DPG  V0201001N00151030001EN0800001N1+00331-00051100791ADDAG10999GD13991+0300099GD24991+0600099GF108991999999999999999999MA1100811999999MW1001REMAWY009FEW CU SW
0117690110999991990021217004+40200-112933SAO  +1326DPG  V0201101N002610300019N0800001N1+00501+00001100751ADDAG10999GD12991+0150099GD23991+0300099GD34991+0600099GF108991999999999999999999MA1100781999999MW1001REMAWY006SWU NE
0166690110999991990021218004+40200-112933SAO  +1326DPG  V0201501N003110270019N0800001N1+00721+00111100711ADDAA124999999AG10000GD12991+0180099GD23991+0270099GD34991+0600099GF108991999051999999071081MA1100751999999MD1610051+9999MW1001REMAWY030SWU NE/          ?    605 1578
0149690110999991990021219004+40200-112933SAO  +1326DPG  V0203301N002610270019N0800001N1+00781+00111100671ADDAG10999GD12991+0180099GD23991+0270099GD34991+0600099GF108991999999999999999999MA1100751999999MW1001REMAWY038WSHFT 1058       ?    FROPA/ SWU NE-SE
0141690110999991990021220004+40200-112933SAO  +1326DPG  V0202301N00151015001EN0800001N1+00891+00171100641ADDAG10999GD13991+0150099GD23991+0270099GD34991+0600099GF108991999999999999999999MA1100711999999MW1001REMAWY030SWU NE-SE BINOVC       ?    NW
0151690110999991990021221004+40200-112933SAO  +1326DPG  V0201101N003110270019N0800001N1+00941+00171100381ADDAA124999999AG10000GD12991+0150099GD23991+0270099GD34991+0600099GF108991999051999999071081MA1100511999999MD1710221+9999MW1001REMAWY015SWU NE/722 1578
0120690110999991990021222004+40200-112933SAO  +1326DPG  V0200701N004110600019N0800001N1+01001+00171100341ADDAG10999GD12991+0150099GD22991+0270099GD33991+0600099GF107991999999999999999999MA1100471999999MW1001REMAWY009SWU NE-SE
0126690110999991990021223004+40200-112933SAO  +1326DPG  V0200301N004110270019N0800001N1+00891+00061100321ADDAG10999GD12991+0150099GD23991+0270099GD33991+0600099GF107991999999999999999999MA1100441999999MW1001REMAWY015SWU NE-SE RWU W
0197690110999991990021300004+40200-112933SAO  +1326DPG  V0200901N008210150019N0800001N1+00501+00001100471ADDAA124999999AG10000GD12991+0030099GD23991+0150099GD34991+0270099GF108991999081999999071999MA1100511999999MD1510001+9999MW1001OC101081REMAWY053VIRGA W          ?    SWU NW-N-E-SE/ 500 187/ 52 LAST
0107690110999991990021313004+40200-112933SAO  +1326DPG  V0202901N00151012001EN0320001N1-00431-00661100871ADDAG10999GD13991+0120099GD24991+0240099GF108991999999999999999999MA1100681999999MW1001REMAWY01145224 FIRST
0072690110999991990021314004+40200-112933SAO  +1326DPG  V0201401N002112200019N0480001N1-00551-00711100851ADDAG10999GD12991+0240099GF102991999999999999999999MA1100641999999MW1001
0144690110999991990021315004+40200-112933SAO  +1326DPG  V0200501N001010600019N0800001N1-00771-00881100981ADDAA124999999AG10000GD12991+0150099GD22991+0240099GD33991+0600099GF107991999051999999071011MA1100681999999MD1510001+9999MW1001REMAWY008500 1571
0130690110999991990021316004+40200-112933SAO  +1326DPG  V0200701N001010600019N0800001N1-00771-01051100991ADDAG10999GD12991+0150099GD22991+0240099GD33991+0600099GF107991999999999999999999MA1100711999999MW1001REMAWY019ST OVR MTNS S AND W
0126690110999991990021317004+40200-112933SAO  +1326DPG  V0201401N002610600019N0800001N1-00431-00661100931ADDAG10999GD12991+0150099GD22991+0240099GD33991+0600099GF107991999999999999999999MA1100681999999MW1001REMAWY015ST OVR MTNS E-S
0146690110999991990021318004+40200-112933SAO  +1326DPG  V0201501N002612200019N0800001N1-00161-00491100871ADDAA124999999AG10000GD12991+0240099GD23991+0600093GF107991999051999999071011MA1100681999999MD1010001+9999MW1001REMAWY025SC E-S/ 000 1571 1     ?7
0104690110999991990021319004+40200-112933SAO  +1326DPG  V0201301N002112200019N0800001N1+00001-00381100801ADDAG10999GD12991+0240099GD23991+0600093GF107991999999999999999999MA1100641999999MW1001REMAWY008SC ALQDS
0102690110999991990021320004+40200-112933SAO  +1326DPG  V0202001N002110600019N0800001N1+00171-00321100751ADDAG10999GD12991+0075099GD22991+0240099GD34991+0600099GF108991999999999999999999MA1100611999999MW1001
0166690110999991990021321004+40200-112933SAO  +1326DPG  V0202901N004110240019N0800001N1+00001-00771100751ADDAA124999999AG10000GD12991+0075099GD23991+0240099GD34991+0600099GF108991999051999999051081MA1100581999999MD1810101+9999MW1001REMAWY030VIRGA ALQDS/     ?    810 1558
0133690110999991990021322004+40200-112933SAO  +1326DPG  V0202901N003610240019N0480001N1+00061-00881100721ADDAG10999GD12991+0075099GD23991+0240099GD34991+0600099GF108991999999999999999999MW1001REMAWY037VSBY LWR SE-SW         ?    SWU ALQDS
0138690110999991990021322214+40200-112933SAOSP+1326DPG  V0203101N00361007501EN0480001N1+99999+99999999999ADDAG10999GD13991+0075099GD23991+0240099GD34991+0600099GF108991999999999999999999MA1100581999999MW1851OC100671REMAWY019SB21 PRECIP VRY LGT
0138690110999991990021322394+40200-112933SAOSP+1326DPG  V0203301N007710150019N0480001N1+99999+99999999999ADDAG10999GD12991+0075099GD23991+0150099GD33991+0240099GD44991+0600099GF108991999999999999999999MA1100581999999MW1001OC101081REMAWY004SE39
0143690110999991990021323004+40200-112933SAO  +1326DPG  V0203301N009310600019N0480001N1+00001-00931100761ADDAG10999GD12991+0075099GD22991+0150099GD32991+0240099GD44991+0600099GF108991999999999999999999MA1100581999999MW1001REMAWY017SB21E39 SWU ALQDS
0195690110999991990021400004+40200-112933SAO  +1326DPG  V0203301N007710600019N0480001N1-00051-01051100801ADDAA124999999AG10000GD12991+0075099GD22991+0150099GD32991+0240099GD44991+0600099GF108991999041999999071081MA1100611999999MD1210021+9999MW1001REMAWY044SWU E-S-W        ?    / 202 1478 MAX 36 LAST
0107690110999991990021413004+40200-112933SAO  +1326DPG  V0203201N003612200019N0320001N1-00931-01601101031ADDAG10999GD12991+0240099GD24991+0600093GF108991999999999999999999MA1100711999999MW1001REMAWY01143615 FIRST
0101690110999991990021414004+40200-112933SAO  +1326DPG  V0203201N005112200019N0320001N1-00991-01601101061ADDAG10999GD12991+0240099GD23991+0600093GF107991999999999999999999MA1100711999999MW1001REMAWY005SC SE
0151690110999991990021415004+40200-112933SAO  +1326DPG  V0203301N004612200019N0800001N1-00931-01601101051ADDAA124999999AG10000GD12991+0240099GD22991+0360099GD33991+0600093GF107991999051999999071081MA1100681999999MD1010051+9999MW1001REMAWY015SC SE/ 005 1578
0127690110999991990021416004+40200-112933SAO  +1326DPG  V0203301N005112200019N0800001N1-00931-01551101111ADDAG10999GD12991+0240099GD22991+0360099GD32991+0600099GF102991999999999999999999MA1100751999999MW1001REMAWY016SC SE VSBY LWR E
0153690110999991990021417004+40200-112933SAO  +1326DPG  V0203501N007712200019N0800001N1-00491-01321101061ADDAG10999GD12991+0075099GD22991+0240099GD32991+0360099GF102991999999999999999999MA1100751999999MW1001REMAWY042SWU SE VSBY LWR SE     ?    ST NE OVR MTNS
0183690110999991990021418004+40200-112933SAO  +1326DPG  V0200101N007212200019N0640001N1-00491-01381101061ADDAA124999999AG10000GD12991+0075099GD22991+0240099GD32991+0360099GF102991999021999999071001MA1100751999999MD1010051+9999MW1001OC101081REMAWY039SWU N AND E-SE/        ?    005 1270 14
0116690110999991990021419004+40200-112933SAO  +1326DPG  V0203501N00621007501EN0640001N1-00501-01441101031ADDGA1071+007509999GA2071+024009999GA3071+036009999GF107991999999999999999999MA1100711999999MW1001REMAWY009SWU N-E-S
0119690110999991990021420004+40200-112933SAO  +1326DPG  V0203601N00671007501EN0480001N1-00491-01381101021ADDAG10999GD13991+0075099GD23991+0240099GF107991999999999999999999MA1100681999999MW1001REMAWY023SWU NW-N-E-S VSBY LWR E
0190690110999991990021421004+40200-112933SAO  +1326DPG  V0200101N00621004501EN0112001N1-00551-01211100991ADDAA124999999AG10000GD14991+0045099GF108991999041999999999999MA1100641999999MD1710081+9999MW1851REMAWY084BINOVC W CIG 15V25 CIG LWR         ?    OVR MTNS N VIRGA W INTMT SW- SWB12/ 708 14//
0136690110999991990021422004+40200-112933SAO  +1326DPG  V0200101N00771007501EN0240001N1-00491-01271101011ADDAG10999GD14991+0075099GF108991999999999999999999MA1100681999999MW1001OC101181REMAWY047CIG LWR N OVR MTNS SWU ALQDS       ?    SB12E20
0158690110999991990021423004+40200-112933SAO  +1326DPG  V0200201N007710240019N0480001N1-00501-01391101031ADDGA1021+007509999GA2071+024009999GA3071+036009999GA4081+060009999GF108991999999999999999999MA1100681999999MW1001OC101081REMAWY027SWU NE-SE MTNS OBSCRD ALQDS
0195690110999991990021500004+40200-112933SAO  +1326DPG  V0200201N007710240019N0480001N1-00491-01381101081ADDAA124999999AG10000GD12991+0075099GD23991+0240099GD34991+0360099GF108991999081999999071999MA1100711999999MD1310051+9999MW1001OC101181REMAWY051SWU E-S-W-NW     ?    VSBY LWR W/30500 187/ 24 LAST
0077690110999991990021513004+40200-112933SAO  +1326DPG  V0200201N001012200019N0320001N1-01431-02051101571ADDAG10999GF100991999999999999999999MA1101051999999MW1001REMAWY01142406 FIRST
0050690110999991990021514004+40200-112933SAO  +1326DPG  V0200701N002612200019N0320001N1-01561-02001101681ADDGF100991999999999999999999MA1101121999999MW1001
0114690110999991990021515004+40200-112933SAO  +1326DPG  V0200701N002112200019N0800001N1-01431-01821101731ADDAA124999999AG10000GD12991+0270099GF102991999001999999071001MA1101191999999MD1210171+9999MW1001REMAWY008217 1070
0072690110999991990021516004+40200-112933SAO  +1326DPG  V0201501N003112200019N0800001N1-01101-01601101741ADDAG10999GD12991+0270099GF102991999999999999999999MA1101251999999MW1001
0087690110999991990021517004+40200-112933SAO  +1326DPG  V0201401N001012200019N0800001N1-00711-01491101731ADDAG10999GD12991+0270099GD22991+0600099GF102991999999999999999999MA1101321999999MW1001
0157690110999991990021518004+40200-112933SAO  +1326DPG  V0202601N002112200019N0800001N1-00491-01491101751ADDAA124999999AG10000GD12991+0270099GD22991+0600099GF102991999011999999071011MA1101351999999MD1210151+9999MW1001REMAWY036FEW CU OMTNS E/215     ?    1171 4 ?
0095690110999991990021519004+40200-112933SAO  +1326DPG  V0203001N002612200019N0800001N1-00381-01601101741ADDAG10999GD12991+0600099GF102991999999999999999999MA1101351999999MW1001REMAWY014FEW CU OMTNS E
0087690110999991990021520004+40200-112933SAO  +1326DPG  V0203001N00211027001EN0800001N1-00381-01711101721ADDAG10999GD13991+0270099GD23991+0600099GF107991999999999999999999MA1101321999999MW1001
0129690110999991990021521004+40200-112933SAO  +1326DPG  V0203301N00151027001EN0800001N1-00211-01551101651ADDAA124999999AG10000GD13991+0270099GD23991+0600099GF107991999001999999071081MA1101291999999MD1810081+9999MW1001REMAWY008808 1078
0093690110999991990021522004+40200-112933SAO  +1326DPG  V0201301N00311027001EN0800001N1-00211-01601101651ADDAG10999GD13991+0270099GF107991999999999999999999MA1101251999999MW1001REMAWY012SWU OMTNS NE
0098690110999991990021523004+40200-112933SAO  +1326DPG  V0201601N00461027001EN0800001N1-00321-01601101681ADDAG10999GD13991+0270099GF107991999999999999999999MA1101251999999MW1001REMAWY017SWU OMTNS NE CS W
0137690110999991990021600004+40200-112933SAO  +1326DPG  V0201701N004612200019N0800001N1-00321-01601101661ADDAA124999999AG10000GD12991+0150099GD22991+0750099GF102991999999999999999999MA1101221999999MD1710031+9999MW1001REMAWY016703 1105 29 LAST
0077690110999991990022013004+40200-112933SAO  +1326DPG  V0200901N002112200019N0240001N1-01321-01491102971ADDAG10999GF100991999999999999999999MA1102571999999MW1001REMAWY01144808 FIRST
0057690110999991990022014004+40200-112933SAO  +1326DPG  V0201401N002112200019N0640001N1-01321-01431103071ADDAG10999GF100991999999999999999999MA1102611999999MW1001
0100690110999991990022015004+40200-112933SAO  +1326DPG  V0200601N001512200019N0800001N1-01051-01211103191ADDAA124999999AG10000GF100991999999999999999999MA1102711999999MD1310101+9999MW1001REMAWY009HAZY/ 310
0075690110999991990022016004+40200-112933SAO  +1326DPG  V0200701N001012200019N0800001N1-00271-00491103171ADDAG10999GF100991999999999999999999MA1102811999999MW1001REMAWY009CI N HAZY
0078690110999991990022017004+40200-112933SAO  +1326DPG  V0201901N001012200019N0800001N1+00001-00551103121ADDAG10999GF100991999999999999999999MA1102811999999MW1001REMAWY012CI W-SE HAZY
0116690110999991990022018004+40200-112933SAO  +1326DPG  V0201301N002112200019N0800001N1+00001-00601103021ADDAA124999999AG10000GD12991+0750099GF102991999001999999001011MA1102741999999MD1010031+9999MW1001REMAWY010003 1001 6
0072690110999991990022019004+40200-112933SAO  +1326DPG  V0201301N001512200019N0800001N1+00331-00431102861ADDAG10999GD12991+0750093GF102991999999999999999999MA1102611999999MW1001
0072690110999991990022020004+40200-112933SAO  +1326DPG  V0203001N003112200019N0800001N1+00331-00551102871ADDAG10999GD13991+0750093GF107991999999999999999999MA1102571999999MW1001
0114690110999991990022021004+40200-112933SAO  +1326DPG  V0203101N00311075001EN0800001N1+00391-00431102841ADDAA124999999AG10000GD13991+0750099GF107991999001999999001061MA1102541999999MD1610191+9999MW1001REMAWY008619 1006
0066690110999991990022022004+40200-112933SAO  +1326DPG  V0203101N00261075001EN0800001N1+00331-00561102861ADDGA1071+075009999GF107991999999999999999999MA1102541999999MW1001
0072690110999991990022023004+40200-112933SAO  +1326DPG  V0202901N000512200019N0800001N1+00611-00381102741ADDAG10999GD13991+0750093GF107991999999999999999999MA1102471999999MW1001
0122690110999991990022100004+40200-112933SAO  +1326DPG  V0201501N002112200019N0800001N1+00391-00601102751ADDAA124999999AG10000GD12991+0750093GF102991999001999999001081MA1102441999999MD1610081+9999MW1001REMAWY016608 1008 44 LAST
0092690110999991990022113004+40200-112933SAO  +1326DPG  V0200801N00101060001EN0800001N1-00381-00431102811ADDAG10999GD14991+0600099GF108991999999999999999999MA1102611999999MW1001REMAWY01144422 FIRST
0072690110999991990022114004+40200-112933SAO  +1326DPG  V0209991C00001060001EN0800001N1-00321-00381102901ADDAG10999GD14991+0600099GF108991999999999999999999MA1102611999999MW1001
0161690110999991990022115004+40200-112933SAO  +1326DPG  V0202401N001010600019N0240001N1-00211-00321102981ADDAA124999999AG10001GD12991+0150099GD22991+0270099GD34991+0600099GF108991999051999999071081MA1102681999999MD1310101+9999MW1871REMAWY025SPB 38 SWU SE/ 31000 1578
0116690110999991990022116004+40200-112933SAO  +1326DPG  V0200201N001510270019N0240001N1-00101-00321103021ADDAG10999GD12991+0150099GD23991+0270099GD34991+0600099GF108991999999999999999999MA1102781999999MW1001REMAWY005SPE04
0082690110999991990022117004+40200-112933SAO  +1326DPG  V0201601N00051015001EN0320001N1+00061-00281103031ADDGA1071+015009999GA2081+027009999GF108991999999999999999999MA1102811999999MW1001
0159690110999991990022118004+40200-112933SAO  +1326DPG  V0201701N001510150019N0320001N1+00171-00271103031ADDAA124999999AG10000GD12991+0120099GD23991+0150099GD34991+0270099GF108991999999999999999999MA1102811999999MD1110121+9999MW1001REMAWY02311200 18         ?7/ 22
0102690110999991990022119004+40200-112933SAO  +1326DPG  V0201201N001010150019N0320001N1+00281-00211103051ADDAG10999GD12991+0120099GD23991+0150099GD34991+0270099GF108991999999999999999999MA1102841999999MW1001
0123690110999991990022120004+40200-112933SAO  +1326DPG  V0201301N00101012001EN0320001N1+00391-00161102981ADDAG10999GD13991+0120099GD23991+0150099GD34991+0270099GF108991999999999999999999MA1102811999999MW1001REMAWY012BINOVC SW-NW
0144690110999991990022121004+40200-112933SAO  +1326DPG  V0201901N001010150019N0480001N1+00561-00101102941ADDAA124999999AG10000GD12991+0120099GD23991+0150099GD33991+0270099GF107991999081999999071001MA1102781999999MD1810051+9999MW1001REMAWY008805 1870
0102690110999991990022122004+40200-112933SAO  +1326DPG  V0201401N002110150019N0640001N1+00501-00211102921ADDAG10999GD12991+0120099GD23991+0150099GD33991+0270099GF107991999999999999999999MA1102741999999MW1001
0087690110999991990022123004+40200-112933SAO  +1326DPG  V0201701N001510150019N0800001N1+00561-00161102951ADDAG10999GD12991+0120099GD23991+0150099GF107991999999999999999999MA1102781999999MW1001
0152690110999991990022200004+40200-112933SAO  +1326DPG  V0201901N002112200019N0800001N1+00611-00101102911ADDAA124999999AG10000GD12991+0120099GD22991+0150099GD32991+0600099GF102991999081999999001081MA1102781999999MD1510001+9999MW1001REMAWY016500 1808 43 LAST
0092690110999991990022213004+40200-112933SAO  +1326DPG  V0201001N002112200019N0320001N1-00711-00771103271ADDAG10999GD12991+0600093GF102991999999999999999999MA1103051999999MW1001REMAWY01144419 FIRST
0072690110999991990022214004+40200-112933SAO  +1326DPG  V0201401N002112200019N0320001N1-00661-00711103341ADDAG10999GD12991+0600093GF102991999999999999999999MA1103051999999MW1001
0114690110999991990022215004+40200-112933SAO  +1326DPG  V0201001N002112200019N0480001N1-00551-00601103401ADDAA124999999AG10000GD12991+0600099GF102991999051999999001081MA1103081999999MD1210071+9999MW1001REMAWY008207 1508
0072690110999991990022216004+40200-112933SAO  +1326DPG  V0201301N001012200019N0800001N1+00001-00161103341ADDAG10999GD12991+0600099GF102991999999999999999999MA1103051999999MW1001
0072690110999991990022217004+40200-112933SAO  +1326DPG  V0209991C000012200019N0800001N1+00391+00061103331ADDAG10999GD12991+0600093GF102991999999999999999999MA1103181999999MW1001
0117690110999991990022218004+40200-112933SAO  +1326DPG  V0203401N000512200019N0800001N1+00781+00111103271ADDAA124999999AG10000GD12991+0600093GF102991999001999999001081MA1103181999999MD1110071+9999MW1001REMAWY011107 1008 18
0102690110999991990022219004+40200-112933SAO  +1326DPG  V0201401N001012200019N0800001N1+00781+00061103281ADDAG10999GD12991+0600093GF102991999999999999999999MA1103151999999MW1001REMAWY021FEW SC OVR MTNS ALQDS
0111690110999991990022220004+40200-112933SAO  +1326DPG  V0202401N000512200019N0800001N1+00891+00171103161ADDGA1021+060009999GD19999+9999993GF102991999999999999999999MA1103081999999MW1001REMAWY021FEW SC OVR MTNS ALQDS
0125690110999991990022221004+40200-112933SAO  +1326DPG  V0202701N000512200019N0800001N1+00941+00221103111ADDGA1021+015009999GA2021+060009999GF102991999999999999999999MA1103011999999MD1810141+9999MW1001REMAWY020FEW SC N-NE/814 1401
0087690110999991990022222004+40200-112933SAO  +1326DPG  V0201801N000512200019N0800001N1+01061+00281103021ADDAG10999GD12991+0150099GD22991+0600099GF102991999999999999999999MA1102951999999MW1001
0087690110999991990022223004+40200-112933SAO  +1326DPG  V0202701N000512200019N0800001N1+01111+00331103001ADDAG10999GD12991+0150099GD22991+0600099GF102991999999999999999999MA1102951999999MW1001
0137690110999991990022300004+40200-112933SAO  +1326DPG  V0202501N001012200019N0800001N1+01171+00331103021ADDAA124999999AG10000GD12991+0150099GD22991+0600099GF102991999041999999001011MA1102951999999MD1610071+9999MW1001REMAWY016607 1401 54 LAST
0092690110999991990022613004+40200-112933SAO  +1326DPG  V0201101N001512200019N0160001N1-00211-00271102371ADDAG10999GD14991+0750093GF108991999999999999999999MA1102301999999MW1001REMAWY01145627 FIRST
0072690110999991990022614004+40200-112933SAO  +1326DPG  V0201401N001512200019N0160001N1-00321-00381102471ADDAG10999GD14991+0750093GF108991999999999999999999MA1102371999999MW1001
0114690110999991990022615004+40200-112933SAO  +1326DPG  V0200901N001512200019N0320001N1-00161-00211102511ADDAA124999999AG10000GD14991+0750093GF108991999001999999001071MA1102401999999MD1310081+9999MW1001REMAWY008308 1007
0072690110999991990022616004+40200-112933SAO  +1326DPG  V0201401N001512200019N0320001N1+00171+00061102521ADDAG10999GD14991+0750093GF108991999999999999999999MA1102471999999MW1001
0087690110999991990022617004+40200-112933SAO  +1326DPG  V0202901N001010750019N0320001N1+00561+00281102511ADDAG10999GD12991+0600099GD24991+0750099GF108991999999999999999999MA1102511999999MW1001
0138690110999991990022618004+40200-112933SAO  +1326DPG  V0202601N00101060001EN0320001N1+00891+00391102471ADDAA124999999AG10000GD13991+0600099GD24991+0750099GF108991999001999999001081MA1102471999999MD1010071+9999MW1001REMAWY017HAZY/ 007 1008 26
0085690110999991990022619004+40200-112933SAO  +1326DPG  V0202701N00051060001EN0320001N1+01061+00391102401ADDAG10999GD13991+0600099GF107991999999999999999999MA1102441999999MW1001REMAWY004HAZY
0072690110999991990022620004+40200-112933SAO  +1326DPG  V0202901N00051060001EN0320001N1+01221+00441102321ADDAG10999GD13991+0600099GF107991999999999999999999MA1102341999999MW1001
0120690110999991990022621004+40200-112933SAO  +1326DPG  V0203001N003612200019N0320001N1+01281+00441102221ADDAA124999999AG10000GD13991+0600093GF107991999001999999001081MA1102271999999MD1710201+9999MW1001REMAWY014HAZY/ 720 1008
0072690110999991990022622004+40200-112933SAO  +1326DPG  V0202901N004112200019N0320001N1+01281+00391102191ADDAG10999GD13991+0600093GF107991999999999999999999MA1102241999999MW1001
0072690110999991990022623004+40200-112933SAO  +1326DPG  V0203001N004112200019N0480001N1+01331+00281102181ADDAG10999GD13991+0600093GF107991999999999999999999MA1102201999999MW1001
0122690110999991990022700004+40200-112933SAO  +1326DPG  V0202901N003612200019N0480001N1+01391+00331102151ADDAA124999999AG10000GD13991+0600093GF107991999001999999001081MA1102201999999MD1610071+9999MW1001REMAWY016607 1008 57 LAST
0098690110999991990022713004+40200-112933SAO  +1326DPG  V0202801N001512200019N0240001N1-00211-00321102491ADDAG10999GD12991+0600093GF102991999999999999999999MA1102471999999MW1001REMAWY017HAZY/ 45726 FIRST
0100690110999991990022714004+40200-112933SAO  +1326DPG  V0202501N001012200019N0320001N1-00211-00321102651ADDAG10999GD12991+0360099GD24991+0600093GF108991999999999999999999MA1102541999999MW1001REMAWY004HAZY
0135690110999991990022715004+40200-112933SAO  +1326DPG  V0200901N000510600019N0320001N1-00101-00161102681ADDAA124999999AG10000GD12991+0360099GD24991+0600099GF108991999001999999071081MA1102571999999MD1210121+9999MW1001REMAWY014HAZY/ 212 1078
0100690110999991990022716004+40200-112933SAO  +1326DPG  V0203301N00051036001EN0320001N1+00221+00001102721ADDAG10999GD13991+0360099GD23991+0600099GF107991999999999999999999MA1102641999999MW1001REMAWY004HAZY
0100690110999991990022717004+40200-112933SAO  +1326DPG  V0202501N002112200019N0320001N1+00671+00221102701ADDAG10999GD12991+0360099GD23991+0600093GF107991999999999999999999MA1102681999999MW1001REMAWY004HAZY
0128690110999991990022718004+40200-112933SAO  +1326DPG  V0202801N001512200019N0400001N1+00831+00221102711ADDAA124999999AG10000GD14991+0600093GF108991999001999999031071MA1102711999999MD1110121+9999MW1001REMAWY022FEW CU SE/ 112 1037 57
0100690110999991990022719004+40200-112933SAO  +1326DPG  V0202701N002612200019N0400001N1+01061+00281102651ADDAG10999GD12991+0450099GD24991+0600093GF108991999999999999999999MA1102681999999MW1001REMAWY004HAZE
0115690110999991990022720004+40200-112933SAO  +1326DPG  V0202601N002612200019N0400001N1+01061+00171102651ADDAG10999GD12991+0150099GD22991+0450099GD34991+0600093GF108991999999999999999999MA1102681999999MW1001REMAWY004HAZE
0150690110999991990022721004+40200-112933SAO  +1326DPG  V0202501N001512200019N0320001N1+01331+00281102561ADDAA124999999AG10000GD12991+0150099GD22991+0450099GD34991+0600093GF108991999011999999071081MA1102611999999MD1810101+9999MW1001REMAWY014HAZE/ 810 1178
0115690110999991990022722004+40200-112933SAO  +1326DPG  V0202801N002112200019N0320001N1+01281+00221102521ADDAG10999GD12991+0150099GD22991+0450099GD34991+0600093GF108991999999999999999999MA1102541999999MW1001REMAWY004HAZE
0115690110999991990022723004+40200-112933SAO  +1326DPG  V0202801N003612200019N0320001N1+01331+00221102491ADDAG10999GD12991+0150099GD22991+0450099GD34991+0600093GF108991999999999999999999MA1102511999999MW1001REMAWY004HAZE
0171690110999991990022800004+40200-112933SAO  +1326DPG  V0202901N005112200019N0320001N1+01281+00111102481ADDAA124999999AG10000GD12991+0150099GD22991+0450099GD34991+0600093GF108991999011999999071081MA1102471999999MD1610081+9999MW1001REMAWY035HAZE/ 608 1178         ?    57 LAST
0077690110999991990022813004+40200-112933SAO  +1326DPG  V0200401N001512200019N0800001N1-00491-00551102721ADDAG10999GF100991999999999999999999MA1102641999999MW1001REMAWY01145722 FIRST
0072690110999991990022814004+40200-112933SAO  +1326DPG  V0201501N001012200019N0800001N1-00551-00601102831ADDAG10999GD12991+0420099GF102991999999999999999999MA1102681999999MW1001
0114690110999991990022815004+40200-112933SAO  +1326DPG  V0201301N001012200019N0800001N1-00271-00381102901ADDAA124999999AG10000GD12991+0420099GF102991999001999999051001MA1102741999999MD1210121+9999MW1001REMAWY008212 1050
0072690110999991990022816004+40200-112933SAO  +1326DPG  V0202701N001012200019N0800001N1+00221+00061102891ADDAG10999GD12991+0420099GF102991999999999999999999MA1102781999999MW1001
0072690110999991990022817004+40200-112933SAO  +1326DPG  V0202801N001012200019N0800001N1+00561+00001102861ADDAG10999GD12991+0420099GF102991999999999999999999MA1102811999999MW1001
0117690110999991990022818004+40200-112933SAO  +1326DPG  V0203101N001512200019N0800001N1+00891+00111102821ADDAA124999999AG10000GD12991+0420099GF102991999001999999051001MA1102781999999MD1210031+9999MW1001REMAWY011203 1050 22
0070690110999991990022819004+40200-112933SAO  +1326DPG  V0202701N001012200019N0480001N1+01111+00171102741ADDAG10999GF100991999999999999999999MA1102741999999MW1001REMAWY004HAZE
0070690110999991990022820004+40200-112933SAO  +1326DPG  V0203201N001012200019N0480001N1+01281+00171102691ADDAG10999GF100991999999999999999999MA1102711999999MW1001REMAWY004HAZE
0148690110999991990022821004+40200-112933SAO  +1326DPG  V0202201N001012200019N0480001N1+01331+00171102561ADDAA124999999AG10000GD12991+0750099GF102991999021999999001091MA1102571999999MD1810171+9999MW1001REMAWY042HAZE MDT CU OMTNS E/         ?    817 1209
0115690110999991990022822004+40200-112933SAO  +1326DPG  V0203201N001512200019N0480001N1+01331+00111102561ADDAG10999GD12991+0180099GD22991+0300099GD32991+0750099GF102991999999999999999999MA1102511999999MW1001REMAWY004HAZE
0100690110999991990022823004+40200-112933SAO  +1326DPG  V0203301N001012200019N0480001N1+01441+00171102451ADDAG10999GD12991+0180099GD22991+0300099GF102991999999999999999999MA1102471999999MW1001REMAWY004HAZE
0153690110999991990030100004+40200-112933SAO  +1326DPG  V0203301N001512200019N0480001N1+01331+00061102471ADDAA124999999AG10000GD12991+0180099GD22991+0300099GF102991999021999999071001MA1102441999999MD1610121+9999MW1001REMAWY032HAZE/612 1270 60       ?    LAST
0092690110999991990030113004+40200-112933SAO  +1326DPG  V0200901N002612200019N0320001N1-00161-00431102281ADDAG10999GD12991+0480093GF102991999999999999999999MA1102271999999MW1001REMAWY01146029 FIRST
0090690110999991990030114004+40200-112933SAO  +1326DPG  V0200701N002112200019N0320001N1-00161-00321102301ADDAG10999GF100991999999999999999999MA1102241999999MW1001REMAWY024FEW SC ALQDS AS SE CI SE
0137690110999991990030115004+40200-112933SAO  +1326DPG  V0209991C000012200019N0480001N1+00171+00001102341ADDAA124999999AG10000GF199999999011999999001011MA1102301999999MD1510001+9999MW1001REMAWY027FEW CU ALQDS CI S/ 500 1101EQDQ01+000002SCOTCV
0087690110999991990030116004+40200-112933SAO  +1326DPG  V0203601N000512200019N0480001N1+00721+00281102301ADDAG10999GD12991+0210099GD22991+0750099GF102991999999999999999999MA1102341999999MW1001
0145690110999991990030117004+40200-112933SAO  +1326DPG  V02099999999990300019N9999999N9+99999+99999999999ADDAG10999GD12991+0210099GD23991+0300099GD33991+0600099GF107991999999999999999999MW1001REMAWY030224/53/39/0601/022/VIRGA ALQDSEQDQ01+000002VOVAR 
0166690110999991990030118004+40200-112933SAO  +1326DPG  V0202001N003112200019N0480001N1+01111+00391102241ADDAA124999999AG10000GD12991+0300099GD22991+0600099GF102991999011999999071081MA1102341999999MD1010031+9999MW1001REMAWY045VIRGA ALQDS FEW CU SE/       ?    003 1178 28
0145690110999991990030119004+40200-112933SAO  +1326DPG  V02099999999990300019N9999999N9+99999+99999999999ADDAG10999GD12991+0210099GD23991+0300099GD33991+0600099GF107991999999999999999999MW1001REMAWY030215/56/38/1504/019/VIRGA ALQDSEQDQ01+000002VOVAR 
0164690110999991990030120004+40200-112933SAO  +1326DPG  V0202601N005110450019N9999999N9+01391+00281102081ADDAG10999GD12991+0210099GD22991+0300099GD33991+0450099GD43991+0600099GF107991999999999999999999MA1102171999999MW1001OC100821REMAWY011VIRGA ALQDSEQDQ01+000002VOVAR 
0223690110999991990030121004+40200-112933SAO  +1326DPG  V02099999999990450019N9999999N9+99999+99999999999ADDAA124999999AG10000GD12991+0210099GD22991+0300099GD33991+0450099GD43991+0600099GF107991999021999999071081MD1610171+9999MW1001REMAWY068203/59/38/1902/016/          ?    VIRGA ALQDS TWR CU NE-SE/ 617 1278EQDQ01+000002VOVAR 
0141690110999991990030122004+40200-112933SAO  +1326DPG  V0203001N00511021001EN0640001N1+01281+00221102041ADDAG10999GD13991+0210099GD24991+0300099GF108991999999999999999999MA1102101999999MW1801REMAWY045VIRGA ALQDS      ?    RWU NE BRKS IOVC N RB54
0131690110999991990030123004+40200-112933SAO  +1326DPG  V0202401N003610300019N0640001N1+01331+00221102021ADDAG10999GD12991+0210099GD24991+0300099GF108991999999999999999999MA1102101999999MW1001REMAWY035RE15 VIRGA ALQDS       ?    CIG RGD
0138690110999991990030200004+40200-112933SAO  +1326DPG  V0202901N00261030001EN0640001N1+01221+00221102001ADDGA1081+030009999GF108991999999999999999999MA1102071999999MD1710071+9999MW1001REMAWY049CIG LWR NE VIRGA ALQDS CIG RGD/70700 102/ 61 LAST
0128690110999991990030513004+40200-112933SAO  +1326DPG  V0202901N003610045019N0160001N1+00171+00171100041ADDAG10999GD12991+0024099GD23991+0045099GD34991+0060099GF108991999999999999999999MA1100201999999MW1801REMAWY01720007 46336 FIRST
0118690110999991990030514004+40200-112933SAO  +1326DPG  V0203201N003110045019N0160001N1+00061+00061100101ADDAG10999GD12991+0024099GD23991+0045099GD34991+0060099GF108991999999999999999999MA1100201999999MW1801REMAWY007SB07E46
0152690110999991990030515004+40200-112933SAO  +1326DPG  V0203101N002110045019N0160001N1+00171+00171100141ADDAA124999999AG10000GD12991+0009099GD23991+0045099GD34991+0060099GF108991999071999999999999MA1100271999999MD1310101+9999MW1001REMAWY016RE27/ 31004 17//
0115690110999991990030515264+40200-112933SAOSP+1326DPG  V0203201N004610024019N0160001N1+99999+99999999999ADDAG10006GD12991+0009099GD23991+0024099GD34991+0045099GF108991999999999999999999MA1100311999999MW1801REMAWY004RB24
0121690110999991990030516004+40200-112933SAO  +1326DPG  V0203201N003610024019N0048001N1+00171+00171100201ADDAG10999GD12991+0009099GD23991+0024099GD34991+0045099GF108991999999999999999999MA1100341999999MW1451MW2801REMAWY004RB24
0133690110999991990030517004+40200-112933SAO  +1326DPG  V0203501N004110024019N0048001N1+00281+00221100251ADDAG10999GD12991+0009099GD23991+0024099GD34991+0045099GF108991999999999999999999MA1100371999999MW1451MW2801REMAWY016RE16B47 SPB16E47
0179690110999991990030518004+40200-112933SAO  +1326DPG  V0203501N005110024019N0048001N1+00331+00221100381ADDAA124999999AG10006GD12991+0009099GD23991+0024099GD34991+0045099GF108991999051999999999999MA1100441999999MD1210151+9999MW1451MW2801REMAWY037VSBY LWR S/      ?      21510 15// 33
0135690110999991990030519004+40200-112933SAO  +1326DPG  V0203401N006710024019N0048001N1+00331+00221100451ADDAG10999GD12991+0009099GD23991+0024099GD34991+0045099GF108991999999999999999999MA1100471999999MW1451MW2611OC101181REMAWY010VSBY LWR S
0137690110999991990030520004+40200-112933SAO  +1326DPG  V0203201N008210024019N0048001N1+00281+00221100501ADDAG10999GD12991+0009099GD23991+0024099GD34991+0045099GF108991999999999999999999MA1100511999999MW1451MW2611OC101181REMAWY012VSBY LWR E-S
0125690110999991990030520084+40200-112933SAOSP+1326DPG  V0203301N008210024019N0024001N1+99999+99999999999ADDAG10999GD16991+0001599GD22991+0009099GD34991+0024099GF108991999999999999999999MA1100541999999MW1451MW2711REMAWY008SF3 SB00
0151690110999991990030521004+40200-112933SAO  +1326DPG  V0203201N009310024019N0024001N1+00171+00171100541ADDGA1101+000159999GA2021+000909999GA3081+002409999GF108991999999999999999999MA1100541999999MD1210101+9999MW1451MW2851REMAWY024SF3 SB00 RE00/21006 16//
0139690110999991990030522004+40200-112933SAO  +1326DPG  V0203201N008810024019N0024001N1+00171+00171100621ADDAG10999GD16991+0001599GD22991+0009099GD34991+0024099GF108991999999999999999999MA1100611999999MW1451MW2611MW3711OC101181REMAWY008SF3 RB20
0126690110999991990030523004+40200-112933SAO  +1326DPG  V0203201N006710024019N0024001N1+00221+00171100711ADDAG10999GD16991+0001599GD22991+0009099GD34991+0024099GF108991999999999999999999MA1100681999999MW1451MW2611MW3711REMAWY003SF3
0177690110999991990030600004+40200-112933SAO  +1326DPG  V0203301N006210024019N0024001N1+00221+00171100781ADDAA124999999AG10010GD16991+0001599GD22991+0009099GD34991+0024099GF108991999061999999999999MA1100751999999MD1310191+9999MW1451MW2611REMAWY035F3 SE25/31908 16//     ?    38 LAST
0121690110999991990030613004+40200-112933SAO  +1326DPG  V0203301N00721009001EN0240001N1+00221-00101101611ADDAG10999GD13991+0090099GD24991+0120099GF108991999999999999999999MA1101561999999MW1001OC100981REMAWY01720016 44135 FIRST
0107690110999991990030614004+40200-112933SAO  +1326DPG  V0203301N00721015001EN0800001N1+00221-00161101681ADDAG10999GD13991+0150099GF107991999999999999999999MA1101631999999MW1001OC100981REMAWY018LWR SC E-SE SWU NE
0167690110999991990030615004+40200-112933SAO  +1326DPG  V0203301N00931018001EN0800001N1+00171-00161101791ADDAA124999999AG10000GD13991+0180099GD23991+0600099GF107991999051999999001011MA1101731999999MD1310191+9999MW1001OC101241REMAWY038LWR SC E-SE      ?    SWU NE/ 319 1501
0116690110999991990030616004+40200-112933SAO  +1326DPG  V0203301N010312200019N0800001N1+00391-00051101821ADDAG10999GD12991+0180099GD24991+0600093GF108991999999999999999999MA1101761999999MW1001OC101441REMAWY012LWR SC NE-SE
0126690110999991990030617004+40200-112933SAO  +1326DPG  V0203301N011312200019N0800001N1+00441+00001101801ADDAG10999GD12991+0180099GD22991+0360099GD33991+0600093GF107991999999999999999999MA1101801999999MW1001OC101491REMAWY007SCSL SE
0170690110999991990030618004+40200-112933SAO  +1326DPG  V0203301N008812200019N0800001N1+00611+00061101791ADDAA124999999AG10000GD12991+0120099GD22991+0180099GD32991+0360099GD42991+0600099GF102991999081999999071011MA1101801999999MD1110081+9999MW1001OC101131REMAWY011108 1871 34
0137690110999991990030619004+40200-112933SAO  +1326DPG  V0203401N008212200019N0800001N1+00721+00111101811ADDAG10999GD12991+0135099GD22991+0360099GD33991+0600093GF107991999999999999999999MA1101861999999MW1001OC101081REMAWY018SC LWR     ?    NE
0110690110999991990030620004+40200-112933SAO  +1326DPG  V0203301N008812200019N0800001N1+00781+00111101771ADDAG10999GD12991+0135099GD22991+0360099GD33991+0600093GF107991999999999999999999MA1101801999999MW1001OC101241
0152690110999991990030621004+40200-112933SAO  +1326DPG  V0203401N008212200019N0800001N1+00891+00061101721ADDAA124999999AG10000GD12991+0135099GD22991+0360099GD33991+0600093GF107991999011999999071061MA1101801999999MD1810021+9999MW1001OC101181REMAWY008802 1176
0129690110999991990030622004+40200-112933SAO  +1326DPG  V0203401N00671013501EN0800001N1+00831+00001101731ADDAG10999GD13991+0135099GD23991+0360093GD33991+0600099GF107991999999999999999999MA1101761999999MW1001OC101031REMAWY010VIRGA N-NE
0110690110999991990030623004+40200-112933SAO  +1326DPG  V0203301N00771013501EN0800001N1+00781+00061101741ADDAG10999GD13991+0135099GD23991+0360099GD33991+0600099GF107991999999999999999999MA1101761999999MW1001OC101081
0182690110999991990030700004+40200-112933SAO  +1326DPG  V0203301N005712200019N0800001N1+00891+00061101741ADDAA124999999AG10000GD12991+0135099GD22991+0360099GD32991+0600099GF102991999021999999071081MA1101801999999MD1510001+9999MW1001OC100821REMAWY038MDT CU SE/       ?    500 1278 50 LAST
0107690110999991990030713004+40200-112933SAO  +1326DPG  V0202801N00051015001EN0320001N1+00171+00001101931ADDAG10999GD13991+0150099GD24991+0240099GF108991999999999999999999MA1101961999999MW1001REMAWY01145035 FIRST
0087690110999991990030714004+40200-112933SAO  +1326DPG  V0201801N000510240019N0800001N1+00171+00001102011ADDAG10999GD12991+0150099GD23991+0240099GF107991999999999999999999MA1102001999999MW1001
0121690110999991990030715004+40200-112933SAO  +1326DPG  V0200501N00151024001EN0800001N1+00221+00061102061ADDAA124999999AG10000GD13991+0240099GF107991999051999999071001MA1102031999999MD1310051+9999MW1001REMAWY015SC SE/ 305 1570
0072690110999991990030716004+40200-112933SAO  +1326DPG  V0200901N000512200019N0800001N1+00391+00171102061ADDAG10999GD12991+0240099GF102991999999999999999999MA1102071999999MW1001
0072690110999991990030717004+40200-112933SAO  +1326DPG  V0202401N001012200019N0800001N1+00891+00391101991ADDAG10999GD12991+0240099GF102991999999999999999999MA1102071999999MW1001
0167690110999991990030718004+40200-112933SAO  +1326DPG  V0202701N001512200019N0800001N1+00891+00111101971ADDAA124999999AG10000GF199999999011999999071001MA1102031999999MD1010001+9999MW1001REMAWY057FEW CU NE-SE FEW AC DSNT ALQDS/          ?    000 1170 35EQDQ01+000002SCOTCV
0096690110999991990030719004+40200-112933SAO  +1326DPG  V0202101N000512200019N0800001N1+01111+00061101921ADDAG10999GF100991999999999999999999MA1102001999999MW1001REMAWY030FEW CU NE-SE FEW AC DSNT ALQDS
0090690110999991990030720004+40200-112933SAO  +1326DPG  V0202401N003112200019N0800001N1+01171+00001101891ADDGA1021+018009999GA2021+030009999GF102991999999999999999999MA1101961999999MW1001OC100671
0144690110999991990030721004+40200-112933SAO  +1326DPG  V0202701N002112200019N0800001N1+01281+00111101751ADDAA124999999AG10000GD12991+0180099GD22991+0300099GD32991+0750093GF102991999041999999071011MA1101861999999MD1810171+9999MW1001REMAWY008817 1471
0102690110999991990030722004+40200-112933SAO  +1326DPG  V0202001N002112200019N0800001N1+01281+00061101691ADDAG10999GD12991+0180099GD22991+0300099GD32991+0750093GF102991999999999999999999MA1101801999999MW1001
0087690110999991990030723004+40200-112933SAO  +1326DPG  V0201801N002112200019N0800001N1+01281+00061101641ADDAG10999GD12991+0180099GD22991+0750093GF102991999999999999999999MA1101731999999MW1001
0137690110999991990030800004+40200-112933SAO  +1326DPG  V0201701N003112200019N0800001N1+01331+00061101581ADDAA124999999AG10000GD12991+0180099GD23991+0750093GF107991999041999999001011MA1101691999999MD1710141+9999MW1001REMAWY016714 1401 56 LAST
0100690110999991990030813004+40200-112933SAO  +1326DPG  V0201901N00771060001EN0320001N1+00671+00001101121ADDAG10999GD14991+0600099GF108991999999999999999999MA1101251999999MW1001OC101031REMAWY01145635 FIRST
0072690110999991990030814004+40200-112933SAO  +1326DPG  V0201901N00621036001EN0800001N1+00671-00051101221ADDAG10999GD14991+0360099GF108991999999999999999999MA1101321999999MW1001
0127690110999991990030815004+40200-112933SAO  +1326DPG  V0201801N00571036001EN0800001N1+00671-00051101301ADDAA124999999AG10000GD14991+0360099GF108991999001999999071001MA1101351999999MD1310071+9999MW1001REMAWY021VIRGA ALQDS/ 307 1070
0092690110999991990030816004+40200-112933SAO  +1326DPG  V0201901N00621036001EN0800001N1+00781+00001101301ADDAG10999GD14991+0360099GF108991999999999999999999MA1101351999999MW1001REMAWY011VIRGA ALQDS
0099690110999991990030817004+40200-112933SAO  +1326DPG  V0201701N00621036001EN0800001N1+01001-00321101351ADDAG10999GD14991+0360099GF108991999999999999999999MA1101421999999MW1001REMAWY018VIRGA N-E AND OVHD
0151690110999991990030818004+40200-112933SAO  +1326DPG  V0201701N00621036001EN0800001N1+01001-00211101351ADDAA124999999AG10000GD14991+0360099GF108991999001999999071001MA1101421999999MD1110051+9999MW1001REMAWY045VIRGA NE BINOVC NW/          ?    105 1070 56
0099690110999991990030819004+40200-112933SAO  +1326DPG  V0201701N00621036001EN0800001N1+01171-00161101361ADDAG10999GD14991+0360099GF108991999999999999999999MA1101421999999MW1001REMAWY018VIRGA NE BINOVC NW
0098690110999991990030820004+40200-112933SAO  +1326DPG  V0201701N00571036001EN0800001N1+01221-00161101281ADDAG10999GD14991+0360099GF108991999999999999999999MA1101391999999MW1001REMAWY017VIRGA E BINOVC NW
0168690110999991990030821004+40200-112933SAO  +1326DPG  V0201801N00671036001EN0800001N1+01331-00161101121ADDAA124999999AG10000GD13991+0360099GD24991+0600099GF108991999011999999071081MA1101291999999MD1810121+9999MW1001REMAWY047FEW CU NW VIRGA E      ?    BINOVC NW/ 812 1178
