0226725375148222010010100537+42409-083010FM-15+0191KDET V0302705N00215004885MN0112655N5+00115-00065101505ADDAA101000095GA1075+004885999GA2085+007325999GD13991+0048859GD24991+0073259GF108991999999999999999999MA1101465099185REMMET10012/31/09 19:53:01 METAR KDET 010053Z 27004KT 7SM BKN016 OVC024 01/M01 A2996 RMK AO2 SLP150 T00111006
0189725375148222010010101537+42409-083010FM-15+0191KDET V0302605N00265006715MN0160935N5+00115-00115101515ADDAA101000095GA1085+006715999GD14991+0067159GF108991999999999999999999MA1101465099185REMMET09412/31/09 20:53:01 METAR KDET 010153Z 26005KT 10SM OVC022 01/M01 A2996 RMK AO2 SLP151 T00111011
0247725375148222010010102537+42409-083010FM-15+0191KDET V0302905N00215008845MN0160935N5+00115-00175101515ADDAA101000095GA1045+007625999GA2085+008845999GD12991+0076259GD24991+0088459GF108991999999999999999999MA1101465099185MD1140044+9999REMMET10712/31/09 21:53:01 METAR KDET 010253Z 29004KT 10SM SCT025 OVC029 01/M02 A2996 RMK AO2 SLP151 T00111017 51004
0200725375148222010010103537+42409-083010FM-15+0191KDET V0302905N00415006105MN0160935N5+00005-00395101565ADDAA101000095GA1085+006105999GD14991+0061059GF108991999999999999999999MA1101495099215OC100825REMMET09712/31/09 22:53:02 METAR KDET 010353Z 29008G16KT 10SM OVC020 00/M04 A2997 RMK AO2 SLP156 T00001039
0249725375148222010010104537+42409-083010FM-15+0191KDET V0302905N00575008535MN0160935N5-00225-00565101635ADDAA101000095GA1025+006105999GA2085+008535999GD11991+0061059GD24991+0085359GF108991999999999999999999MA1101565099285OC100885REMMET11512/31/09 23:53:01 METAR KDET 010453Z 29011G17KT 10SM FEW020 OVC028 M02/M06 A2999 RMK AO2 SLP163 T10221056 400171022
0912725375148222010010104596+42409-083010SOD  +0191KDET V030999999999999999999999999999+99999+99999999999ADDAA124000025AX1015245KA1240M+00175KA2240N-00215MG1099094101294OE11240098330023575OE22240071528023205OE33240031399999995REMSOD74724 HR PRECIPITATION (IN):T     WEATHER(CODE):1  24 HR MAX TEMP (F):35 24 HR MAX TEMP TIME (LST):1622 24 HR MIN TEMP (F):28 24 HR MIN TEMP TIME (LST):2359 AVERAGE STATION PRESSURE:29.260 MINIMUM SEA LEVEL PRESSURE:29.91 TIME OF OCCURRENCE:1451 PEAK WIND SPEED (MPH):22  PEAK WIND DIR (DEG):300 PEAK WIND TIME (LST):2357  FASTEST 2MIN SPEED (MPH):16 FASTEST 2MIN DIR (DEG):280 FASTEST 2MIN TIME (LST):2320 AVERAGE WIND SPEED (MPH):7.0  24 HR AVG TEMP (F):32 HEATING DEGREE DAYS:33  COOLING DEGREE DAYS:0   LATEST DAY MAX TEMP (0700-1900 LST):35  LATEST NIGHT MIN TEMP(1900-0800 LST):27 HOURLY INCREMENTAL PRECIPITATION VALUES (IN):.00 T    T    T    T    0.00 T    T    T    T    0.00 0.00 0.00 0.00 0.00 T    0.00 0.00 0.00 0.00 0.00 0.00 0.00 0.00EQDR01     N7GJS072R02     N7GKS075